:020000040800F2
:1000000000000220010A0008FD090008B95C000890
:10001000FD090008FD090008FD09000800000000B6
:10002000000000000000000000000000FD090008C2
:10003000FD09000800000000FD0900083D5C000803
:10004000FD090008FD090008FD090008FD09000878
:10005000FD090008FD090008FD090008FD09000868
:10006000FD090008FD090008FD090008B554000855
:10007000C1540008FD090008CD540008D9540008F7
:1000800049FF000841400008FD090008FD0900087B
:10009000FD090008FD090008FD090008FD09000828
:1000A000FD090008FD090008FD090008FD09000818
:1000B000D15A0008DD5A0008E95A000875400008C6
:1000C000FD09000881400008FD090008F9EE00085C
:1000D00005EF00087DFD0008ADFD0008E1FD00080A
:1000E000FD090008FD09000800000000FD090008E6
:1000F000FD090008FD090008FD090008FD090008C8
:10010000FD090008FD090008F55A000811EF000874
:1001100015FE000849FE0008FD090008FD09000859
:10012000FD090008FD09000835EF000869EF000827
:100130007DFF0008FD090008FD090008FD09000811
:1001400000000000000000000000000000000000AF
:10015000FD090008FD090008FD0900087DFE0008F2
:100160008D400008FD0900084D5C0008715C000826
:10017000FD090008955C0008FD090008FD0900085C
:10018000FD090008FD090008B1FE0008E1FE0008B5
:100190001DEF000829EF0008FD090008FD0900080F
:1001A000FD090008FD090008FD090008FD09000817
:1001B000D5510008FD090008FD090008FD090008E7
:1001C000FD090008FD090008B5E60008C1E60008C1
:1001D000FD090008CDE60008FD090008FD0900083A
:1001E000FD090008FD090008FD090008FD090008D7
:1001F000FD090008FD090008FD090008FD090008C7
:10020000FD090008FD090008FD090008FD090008B6
:10021000FD090008FD090008FD090008FD090008A6
:10022000FD090008FD090008FD09000800000000A4
:10023000FD090008FD09000800000000FD09000894
:10024000FD090008FD090008FD090008FD09000876
:10025000FD090008FD090008FD090008FD09000866
:10026000FD090008FD090008FD090008FD09000856
:10027000FD090008FD09000815FF00080000000046
:10028000FD090008FD090008FD0900080000000044
:0802900000000000FD09000858
:1002A00010B5054C237833B9044B13B10448AFF3B0
:1002B00000800123237010BDA00600240000000070
:1002C000E859010808B5034B1BB103490348AFF3D4
:1002D000008008BD00000000A4060024E8590108C1
:1002E00001F0FF01102A2BDB10F0070F08D010F8E7
:1002F000013B013A8B422DD010F0070F42B3F6D1EB
:10030000F0B441EA012141EA014122F007047FF003
:1003100000070023F0E80256083C85EA010586EA5A
:10032000010685FA47F5A3FA87F586FA47F6A5FA96
:1003300087F68EB9EED1F0BC01F0FF0102F00702A2
:1003400032B110F8013B013A83EA010313B1F8D14D
:100350000020704701387047002D06BF354603382E
:10036000073815F0010F07D1013015F4807F02BF67
:10037000013015F4C03F0130F0BC0138704700BFB8
:1003800081F0004102E000BF83F0004330B54FEA46
:1003900041044FEA430594EA050F08BF90EA020FB3
:1003A0001FBF54EA000C55EA020C7FEA645C7FEA46
:1003B000655C00F0E2804FEA5454D4EB5555B8BF69
:1003C0006D420CDD2C4480EA020281EA030382EADA
:1003D000000083EA010180EA020281EA0303362D6C
:1003E00088BF30BD11F0004F4FEA01314FF4801C3F
:1003F0004CEA113102D0404261EB410113F0004F51
:100400004FEA03334CEA133302D0524263EB430307
:1004100094EA050F00F0A780A4F10104D5F1200EA5
:100420000DDB02FA0EFC22FA05F2801841F1000100
:1004300003FA0EF2801843FA05F359410EE0A5F1D4
:1004400020050EF1200E012A03FA0EFC28BF4CF005
:10045000020C43FA05F3C01851EBE37101F00045BB
:1004600007D54FF0000EDCF1000C7EEB00006EEBC8
:100470000101B1F5801F1BD3B1F5001F0CD3490852
:100480005FEA30004FEA3C0C04F101044FEA4452A9
:1004900012F5800F80F09A80BCF1004F08BF5FEA30
:1004A000500C50F1000041EB045141EA050130BD10
:1004B0005FEA4C0C404141EB0101013C28BFB1F522
:1004C000801FE9D291F0000F04BF01460020B1FA6D
:1004D00081F308BF2033A3F10B03B3F120020CDA40
:1004E0000C3208DD02F1140CC2F10C0201FA0CF01E
:1004F00021FA02F10CE002F11402D8BFC2F1200C83
:1005000001FA02F120FA0CFCDCBF41EA0C01904038
:10051000E41AA2BF01EB0451294330BD6FEA040481
:100520001F3C1CDA0C340EDC04F11404C4F120026C
:1005300020FA04F001FA02F340EA030021FA04F37E
:1005400045EA030130BDC4F10C04C4F1200220FAD5
:1005500002F001FA04F340EA0300294630BD21FA13
:1005600004F0294630BD94F0000F83F4801306BFD9
:1005700081F480110134013D4EE77FEA645C18BFCD
:100580007FEA655C29D094EA050F08BF90EA020F64
:1005900005D054EA000C04BF1946104630BD91EA5C
:1005A000030F1EBF0021002030BD5FEA545C05D15F
:1005B0004000494128BF41F0004130BD14F580049E
:1005C0003CBF01F5801130BD01F0004545F0FE4112
:1005D00041F470014FF0000030BD7FEA645C1ABF47
:1005E000194610467FEA655C1CBF0B46024650EA7E
:1005F000013406BF52EA033591EA030F41F40021AA
:1006000030BD00BF90F0000F04BF0021704730B52F
:100610004FF4806404F132044FF000054FF0000104
:1006200050E700BF90F0000F04BF0021704730B5C5
:100630004FF4806404F1320410F0004548BF40429A
:100640004FF000013EE700BF42004FEAE2014FEAEF
:1006500031014FEA02701FBF12F07F4393F07F4FCA
:1006600081F06051704732F07F4208BF704793F0CD
:100670007F4F04BF41F40021704730B54FF46074E0
:1006800001F0004521F000411CE700BF50EA0102E3
:1006900008BF704730B54FF000050AE050EA01028C
:1006A00008BF704730B511F0004502D5404261EBFC
:1006B00041014FF4806404F132045FEA915C3FF43D
:1006C000D8AE4FF003025FEADC0C18BF03325FEADA
:1006D000DC0C18BF033202EBDC02C2F1200300FA8B
:1006E00003FC20FA02F001FA03FE40EA0E0021FAB0
:1006F00002F11444BDE600BF53B94AB9002908BF4E
:1007000000281CBF4FF0FF314FF0FF3000F074B9EC
:10071000ADF1080C6DE904CE00F006F8DDF804E058
:10072000DDE9022304B070472DE9F047089D044637
:100730008E46002B4DD18A42944669D9B2FA82F294
:1007400052B101FA02F3C2F1200120FA01F10CFAD0
:1007500002FC41EA030E94404FEA1C48210CBEFB08
:10076000F8F61FFA8CF708FB16E341EA034306FB91
:1007700007F199420AD91CEB030306F1FF3080F020
:100780001F81994240F21C81023E63445B1AA4B26D
:10079000B3FBF8F008FB103344EA034400FB07F70F
:1007A000A7420AD91CEB040400F1FF3380F00A8150
:1007B000A74240F207816444023840EA0640E41B45
:1007C00000261DB1D4400023C5E900433146BDE8F1
:1007D000F0878B4209D9002D00F0EF800026C5E993
:1007E000000130463146BDE8F087B3FA83F6002EAB
:1007F0004AD18B4202D3824200F2F980841A61EB23
:10080000030301209E46002DE0D0C5E9004EDDE740
:1008100002B9FFDEB2FA82F2002A40F09280A1EB28
:100820000C014FEA1C471FFA8CFE0126200CB1FB7D
:10083000F7F307FB131140EA01410EFB03F0884276
:1008400008D91CEB010103F1FF3802D2884200F203
:10085000CB804346091AA4B2B1FBF7F007FB101195
:1008600044EA01440EFB00FEA64508D91CEB040433
:1008700000F1FF3102D2A64500F2BB800846A4EB8E
:100880000E0440EA03409CE7C6F12007B34022FA79
:1008900007FC4CEA030C20FA07F401FA06F31C43A8
:1008A000F9404FEA1C4900FA06F3B1FBF9F8200CB5
:1008B0001FFA8CFE09FB181140EA014108FB0EF0FB
:1008C000884202FA06F20BD91CEB010108F1FF3A4B
:1008D00080F08880884240F28580A8F10208614457
:1008E000091AA4B2B1FBF9F009FB101144EA014165
:1008F00000FB0EFE8E4508D91CEB010100F1FF3410
:100900006CD28E456AD90238614440EA0840A0FBA7
:100910000294A1EB0E01A142C846A64656D353D07D
:100920005DB1B3EB080261EB0E0101FA07F722FAA1
:1009300006F3F1401F43C5E9007100263146BDE8CA
:10094000F087C2F12003D8400CFA02FC21FA03F32D
:10095000914001434FEA1C471FFA8CFEB3FBF7F0AE
:1009600007FB10360B0C43EA064300FB0EF69E42D3
:1009700004FA02F408D91CEB030300F1FF382FD26C
:100980009E422DD9023863449B1B89B2B3FBF7F614
:1009900007FB163341EA034106FB0EF38B4208D9ED
:1009A0001CEB010106F1FF3816D28B4214D9023E2E
:1009B0006144C91A46EA004638E72E46284605E74C
:1009C0000646E3E61846F8E64B45A9D2B9EB02081D
:1009D00064EB0C0E0138A3E74646EAE7204694E7AD
:1009E0004046D1E7D0467BE7023B614432E73046E0
:1009F00009E76444023842E7704700BFFEE700BFE2
:100A00000B480C4A904203D0121A0B4913F098FC81
:100A10000A480B4A904203D0121A002113F09EFCA0
:100A200005F076FB13F060FC00F0AEFEFEE700BFC1
:100A300000000024A00600241C5A0108A00600247F
:100A400050090124704700BF704700BF704700BFC6
:100A5000704700BFAAB32DE9F041174682B00646A1
:100A60000C460025DFF8608007E0023523606360F4
:100A70000836AF4204F1080420D998F8001000238A
:100A80000129F2D101AA69460E48023501F060FA47
:100A900096ED007ADDED007AAF42DDED016A06F1F8
:100AA000080637EE277A04F1080404ED027A56EDC1
:100AB000017A77EEA67A44ED017ADED802B0BDE87D
:100AC000F0817047C89700240400002403282DE912
:100AD000F84F08D0DFF8BC90B9F800100131A9F840
:100AE0000010BDE8F88F254CDFF8A8902368B9F80E
:100AF000001003F10052224D128892B28A422A80DD
:100B0000ECD1DFF894801F4F1F4E0BE001F000FC8A
:100B10002368B9F8001003F10052128892B2914292
:100B20002A80DBD1981C194AD91CDFF870A02060FC
:100B30009A5C2160191D02F07F0C02F0800B5FFAB5
:100B400082FE1348A8F800B0A7F800C013F80A20E6
:100B5000216061461346D2B2FF2B338006D01EF0CF
:100B6000800FD3D10A4801F041FCD1E700224FF4B5
:100B70008033A9F800202360BDE8F88F0C00002422
:100B8000BA970024B8970024BC97002402000020E4
:100B9000C8970024B2970024B697002403000020D1
:100BA000054B188808B1FFF791BF04494FF4803214
:100BB000034B08801A607047B4970024B297002452
:100BC0000C00002410B500F2D44300F2546430331A
:100BD00000222D494FF0000CA34243F8302C43F87B
:100BE0002C2C43F8281C43F8242C43F8201C43F8F1
:100BF0001C1C43F8181C43F8142C43F8102C43F821
:100C00000C2C03F804CC03F803CCE0D100F2D4742C
:100C1000303300221C494FF0000CA34243F8302C23
:100C200043F82C2C43F8281C43F8242C43F8201CB0
:100C300043F81C1C43F8181C43F8142C43F8102CE0
:100C400043F80C2C03F804CC03F803CCE0D100F6F5
:100C50003424002203F1180C03F1280103F1080EDB
:100C6000C3E90222C3E904224C3343F8342CCCF804
:100C70000C20A342CCE9012243F8242CCA60C1E92C
:100C80000122E6D110BD00BF000080BF134B30B47D
:100C90001A68134C02F10055B4F800C0A5F800C062
:100CA000951C1D600F4D50551A680F4D501C186053
:100CB0000E4811541A68511CA94219600CD9218898
:100CC00011524FF6FF700A495052002209484FF462
:100CD000803122800280196030BC70470C000024F3
:100CE000B297002402000020F8FF07000100002056
:100CF00003000020B497002484B0F0B583B008ACA2
:100D000084E80F009DF820309DF828409DF82920A8
:100D1000062B11D8DFE813F01500240110002D0078
:100D2000370110000700C64B93F88930112B00F0F3
:100D300047818B4200F0448103B0BDE8F04004B02D
:100D40007047BF4B93F88930112B01D08B42F3D100
:100D5000BC4B1B88012B00F087832146B84801F06B
:100D600045FB0021B84803B0BDE8F04004B001F0F5
:100D7000A5BC013C772CDFD801A353F824F000BFB9
:100D8000B3120008931200087B12000863120008D7
:100D9000431200082112000809120008F11100088E
:100DA000D9110008C1110008A9110008911100080B
:100DB000791100085711000895130008571300080F
:100DC0003F130008271300081D130008051300082F
:100DD000ED120008D5120008351100081D11000899
:100DE000FB100008D9100008BB130008AD13000861
:100DF000390D0008390D0008390D0008390D0008BB
:100E0000390D0008390D0008390D0008390D0008AA
:100E1000390D0008390D0008390D0008390D00089A
:100E2000390D0008390D0008390D0008390D00088A
:100E3000390D0008390D0008390D0008390D00087A
:100E4000390D0008390D0008390D0008390D00086A
:100E5000390D0008390D0008390D0008390D00085A
:100E6000390D0008390D0008390D0008390D00084A
:100E7000390D0008390D0008390D0008390D00083A
:100E8000390D0008390D0008390D0008390D00082A
:100E9000390D0008390D0008390D0008390D00081A
:100EA000390D0008390D0008390D0008390D00080A
:100EB000390D0008390D0008390D0008390D0008FA
:100EC000390D0008390D0008390D0008390D0008EA
:100ED000390D0008390D0008390D0008390D0008DA
:100EE000390D0008390D0008390D0008390D0008CA
:100EF000390D0008390D0008390D0008390D0008BA
:100F0000390D0008390D0008390D0008390D0008A9
:100F1000390D0008390D0008390D0008390D000899
:100F2000390D0008390D0008390D0008390D000889
:100F3000390D0008390D0008390D0008390D000879
:100F4000390D0008390D0008390D0008390D000869
:100F5000390D0008390D0008C3100008AD10000855
:100F6000374B93F88930112B02D08B427FF4E4AEDB
:100F7000344B1B88012B00F06F822146304801F072
:100F8000C7F90121EEE62E4B93F88930112B02D0E0
:100F90008B427FF4D1AE1C2C40F25682233C172C9E
:100FA0003FF6CAAEDFE804F07B675D524A4846442C
:100FB00042403E3C3A32302E2C2A28262422201849
:100FC000A4F500541E4804EBC21421B203B0BDE8DE
:100FD000F04004B001F018BA0921194803B0BDE887
:100FE000F04004B001F026BB0821F6E70721F4E742
:100FF0000621F2E70521F0E70421EEE70321ECE703
:101000000221EAE70121E8E70021E6E709210C488F
:1010100003B0BDE8F04004B001F0A8BA0821F6E73B
:101020000721F4E70621F2E70521F0E70421EEE7C6
:101030000321ECE70221EAE70121E8E70021E6E7E6
:10104000C8970024B4970024BC060024C84A002195
:10105000C8480324C84B11804FF4803204801A60C2
:101060006AE60023C34CC2484FF48031C24A238051
:101070000380116060E6C04B4FF6FF7EBC4A002142
:101080001868168800F10055BC4FBA4C2E8020F825
:1010900007E04FF480302180118018604CE6B5499C
:1010A0000120B34B002208801A8045E65309013B1A
:1010B000032B00F2A681DFE813F0BF01C301BB01DF
:1010C000B7015309013B032B00F29B81DFE813F0CA
:1010D000A801A401A001960107EE902A9FEDAC7A29
:1010E000A748F8EE676AC6EE877AC0ED1B7A03B0B0
:1010F000BDE8F04004B000F00FBF07EE902A9FED6E
:10110000A17A9F48F8EE676AC6EE877AC0ED197A31
:1011100003B0BDE8F04004B000F0E6BE07EE902A50
:101120009FED9B7A9648F8EE676AC6EE877AC0ED27
:10113000187AEDE707EE902A9FED927A9048F8EE44
:10114000676AC6EE877AC0ED167A03B0BDE8F04054
:1011500004B000F0B1BE07EE902A9FED8D7A88486A
:10116000F8EE676AC6EE877AC0ED0A7A03B0BDE88A
:10117000F04004B000F00CBE07EE902A9FED847A98
:101180007F48F8EE676AC6EE877AC0ED097AEDE728
:1011900007EE902A9FED7E7A7948F8EE676AC6EEF0
:1011A000877AC0ED107AE1E707EE902A9FED787A12
:1011B0007348F8EE676AC6EE877AC0ED0F7AD5E716
:1011C00007EE902A9FED727A6D48F8EE676AC6EED8
:1011D000877AC0ED0E7AC9E707EE902A9FED6C7A08
:1011E0006748F8EE676AC6EE877AC0ED0D7ABDE70C
:1011F00007EE902A9FED647A614BF8EE676AC6EEBF
:10120000877AC3ED087A97E507EE902A9FED5E7A1C
:101210005B4BF8EE676AC6EE877AC3ED047A8BE51E
:1012200007EE902A9FED5A7A5548F8EE676AC6EEA7
:10123000877AC0ED1F7A03B0BDE8F04004B000F03B
:101240000BBE07EE902ADFED526AB7EE007A4C4BE8
:10125000B8EE676AC6EE267A77EE877AC3ED077A2C
:101260006AE507EE902A9FED487A454BF8EE676AEB
:10127000C6EE877AC3ED067A5EE507EE902A9FED0B
:10128000447A3F4BF8EE676AC6EE877AC3ED027A7E
:1012900052E507EE902ADFED3E6A9FED3C7AB8EE0C
:1012A000676A3748C6EE267A67EE877AC0ED207AFD
:1012B000C1E707EE902A9FED367A3148F8EE676A6B
:1012C000C6EE877AC0ED137A03B0BDE8F04004B0F3
:1012D00000F0D6BD07EE902A9FED2D7A2848F8EE53
:1012E000676AC6EE877AC0ED157A2EE707EE902A78
:1012F0009FED277A2248F8EE676AC6EE877AC0ED3E
:10130000127AE1E707EE902A9FED217A1C4BF8EE66
:10131000676AC6EE877AC3ED217A0DE5184B52094C
:1013200083F8882008E507EE902A9FED197A144B80
:10133000F8EE676AC6EE877AC3ED1E7AFCE407EE24
:10134000902A9FED137A0E4BF8EE676AC6EE877A05
:10135000C3ED1D7AF0E407EE902A9FED0D7A084860
:10136000F8EE676AC6EE877AC0ED0C7AFEE600BF3B
:10137000B2970024B49700240C000024020000203F
:10138000C89700240080FF4300007F4300A08C46E4
:101390000000FE4207EE902A1FED037A3548F8EE72
:1013A000676AC6EE877AC0ED0B7ADFE65209032A38
:1013B00013D8DFE802F0191E140E07EE902A9FEDF5
:1013C0002E7A2C48F8EE676AC6EE877AC0ED1C7A52
:1013D0008DE6284B062283F86820264887E6254BB1
:1013E000042283F86820F8E7224B012283F8682062
:1013F000F3E7204B022283F86820EEE71D4B022220
:101400001A711C4803B0BDE8F04004B000F0AEBC57
:10141000184B04221A71F4E7164B06221A71F0E7F2
:10142000144B01221A71ECE7124B06221A75E8E7F9
:10143000104B04221A75E4E70E4B01221A75E0E7FF
:101440000C4B02221A75DCE721460A4803B0BDE8BE
:10145000F04004B000F0E8BF114644F08000019273
:10146000FFF714FC019A88E500212046FFF70EFCE7
:1014700073E400BFC89700240000FE4210B50322A9
:1014800086B000244FF0FF310123029201948DF8C1
:101490001430CDE9034104F0EFFD094B02A9A3FB91
:1014A0000030C009049001A804F02AFB2246054937
:1014B00001A804F09FFB01A804F08AFB06B010BD50
:1014C00089888888A10B00082DE9F04100F51044B7
:1014D000C8B0054694F8AC301942037918D0032BF4
:1014E0001CD00022027194F8B0300B40C36094F815
:1014F000AD300B401B09092B037206D80120072BC6
:10150000287184F8A43000F0E88048B0BDE8F0818C
:10151000032BFAD8DFE803F08D115802F72900F009
:10152000C38095F9922095F89230002AEDDBEA18F5
:101530000133917485F89230E7E794F8AE8001EAC0
:10154000080885F8108094F8A4703B1F012B06D979
:1015500095F8933003F0FD03012B40F0BB8000238E
:101560006E46902205F1080130462B7112F0E8FE1C
:10157000D4F89830D4F89C20013B9B1ADBB2002BA6
:10158000F6D0902231460DEB020012F0D9FED4F8CD
:101590009C6024A9902206EBC600013605EB0010E2
:1015A000F6B2983012F0CCFEC4F89C60B8F1770F18
:1015B000ABD9032FA9D10923A8F178012B7284F8A4
:1015C000A43085F89510A0E794F8AE3019406974FE
:1015D00094F8A430012B02D1002900F08C806E46D3
:1015E000902205F10801304612F0AAFED4F8983096
:1015F000D4F89C20013B9B1ADBB2002BF6D0902242
:1016000031460DEB020012F09BFED4F89C6024A939
:10161000902206EBC600013605EB0010F6B29830BA
:1016200012F08EFE0023C4F89C602B7148B0BDE818
:10163000F08194F8A4302B72043B94F8AE20012B77
:1016400001EA0201297405D995F8933003F0FD03EE
:10165000012B3CD100236E46902205F10801304653
:101660002B7112F06DFED4F89830D4F89C20013B19
:101670009B1ADBB2002BF6D0902231460DEB020014
:1016800012F05EFED4F89C6024A9902206EBC600FE
:10169000013605EB0010F6B2983012F051FEC4F896
:1016A0009C6048B0BDE8F08100236E46902205F1B1
:1016B000080130462B7112F043FED4F89830D4F86C
:1016C0009C20013B9B1ADBB2002BF6D0D4E702230F
:1016D0002B711AE702232B7168E711F00800EA600A
:1016E00036D101F0070385F893303BB9032285F822
:1016F00092302A7109E700232B7270E74B077FF5C0
:1017000004AF6E462871902205F10801304612F0B0
:1017100017FED4F89830D4F89C20013B9B1ADBB21A
:10172000002BF6D0902231460DEB020012F008FE9D
:10173000D4F89C6024A9902206EBC60005EB0010AB
:10174000983012F0FDFD731CDBB2C4F89C30DCE66F
:1017500008236E462B72304684F8A43094F8B230D9
:101760002A719022194085F8941005F1080112F0B1
:10177000E7FDD4F89830D4F89C20013B9B1ADBB2EB
:10178000002BF6D0CEE700BF2DE9F0430121C9B010
:101790006248002500F0FEFF062160484FF00A096C
:1017A00000F06CFFDFF898815C4800F063FF5B4855
:1017B00088ED000A00F07EFF0523594A0121594FA8
:1017C0008DF880308DF8823007F510448DF8843024
:1017D0008DF886308DF88830082382ED000A0622C5
:1017E0008DF8813009238DF88C1020A98DF8833075
:1017F00007234A488DF885308DF887208DF88A2098
:101800008DF88B208DF88D508DF8899003F070FA4B
:10181000454800F0D9F8444800F09EFE434E294662
:1018200004F1A80084F8A55002F04CF96420C4F833
:101830009C50C4F8985087F808903D7104F0AEFAB7
:1018400029463B4A304612F089FDD8ED007A9FEDDB
:10185000397A4BF67F3346F8085C67EE877ABDEE3F
:10186000E77A17EE102AF8EEC76A9A4277EEE67A20
:1018700028BF1A4646ED037A46F8042C24AEFFF73B
:10188000FDFD2D49254800F0F1FE04F085FA0546DE
:1018900007E0C4F8A05002F04BF901462148FFF7D9
:1018A00013FE264802F03AF903462448002BF0D1F3
:1018B000224802F051F9034640B3D4F89C30D4F8E2
:1018C00098209B1ADBB2002BDFD0D4F89C30D4F8E0
:1018D00098209B1ADBB2002BF7D0D4F898509022B6
:1018E000304605EBC501013507EB0111EDB298312A
:1018F00012F026FD28A980226846C4F8985012F0FC
:101900001FFD96E80F00FFF7F7F9D6E70B483B718C
:1019100002F026F9094802F0FDF8CEE7BC060024E3
:10192000C0970024FC060024C89700240C0000C0C7
:1019300000EE02000AD7233C550A0008A4970024B1
:10194000C497002438B516480024164A1649046086
:101950004461046212F08EF81448154D4FF60F01E1
:1019600000F5104304600F4AC3F8A8400724A3F809
:10197000B01083F8B2400F4CC3F8AC500E4912F0CF
:1019800079F82046FFF71EF9064A0C49204612F066
:1019900071F8044A0A490B48BDE8384012F06AB8A9
:1019A000BC06002400000024450A0008FC060024B0
:1019B00080707FF0C89700244D0A0008490A00088B
:1019C000510A0008000000C02DE9F04F054600F55F
:1019D0008A7400F2D47800F525792DED088B83B058
:1019E00048E0F4EE487AF1EE10FA78FE277A04F532
:1019F000A866C4EDF07A012195ED000A304611F099
:101A00001DFB95ED0D0A0121304611F087FB95ED88
:101A10000E0A0221304611F081FB95ED100A0421D7
:101A2000304611F07BFBD5ED0F7AF5EEC07AF1EE82
:101A300010FA40F2C380B7EE007AF4EE477AF1EE86
:101A400010FA77FE277AC6ED007A404695ED000A37
:101A5000303411F043FC404695ED200A11F0B2FD00
:101A6000404695ED1F0A08F14C0811F001FE4C4567
:101A700000F0A780B7EE008AD5ED007AB6EE009AA6
:101A80009FEDB4AA9FEDB4BA012788EE277ADFF85C
:101A9000D8B2C4ED057A204684ED02AA04F5C07AD6
:101AA00084ED019A04F5707684ED039AB0EE4A0A4B
:101AB000C4F810B084ED07BADFEDA8AADFEDA89A4C
:101AC000C9FE0B8AC8FEC88A84ED067A11F0C6FFEB
:101AD00084F82D7084ED080A204684F82C70B0EE4E
:101AE0006A0A2B7984ED018A082BC4ED02AA28BF6B
:101AF0000023237011F0B2FF68EEA99A84ED080A62
:101B00005046C4ED038AB0EE4A0AC4ED049AD5EDFE
:101B1000007A84ED62AA88EE277AC4ED657A84EDB6
:101B2000619A84ED639AC4F890B184ED67BACDF8F8
:101B300004A084ED667A11F091FF84F8AD7184F809
:101B4000AC7184ED680A2B7D84ED618A082B0198C5
:101B500028BF002384F8803195ED060A20EE2A0A7A
:101B600084ED620A11F07AFF3946304684ED680A46
:101B7000C4ED638AC4ED649A95ED000A019611F0F4
:101B80005DFA95ED090A3946019811F0C7FA95ED0D
:101B90000A0A0221019811F0C1FA95ED0C0A0421FC
:101BA000019811F0BBFAD5ED0B7AF4EECB7AF1EE99
:101BB00010FA3FF616AFDFED6B7A18E7DFED697AC2
:101BC00041E7F7EE008AD5ED007A05F214444FF0B4
:101BD0007C569FED608A4FF0000888EEA77ADFF808
:101BE0008891C4ED057A204684ED028A40F20117FF
:101BF0006660E660C4F81090B0EE480AC4F81C8035
:101C000084ED067A11F02AFF84ED080A95F8443035
:101C1000204695ED120A082BA5F8407428BF002332
:101C200085F8143484ED020A11F018FF84ED080AD7
:101C3000EB6CB0EE480A636005F24444D5ED007ADF
:101C4000204684ED028A88EEA77AC4ED057A6660A4
:101C5000E660C4F81090C4F81C8084ED067A11F098
:101C6000FDFE84ED080A95F85030204695ED150AE2
:101C7000082BA5F8707428BF002385F8443484ED40
:101C8000020A11F0EBFE84ED080AAB6DB0EE480AD3
:101C9000636005F27444D5ED007A204684ED028A33
:101CA00088EEA77AC4ED057A6660E660C4F8109005
:101CB000C4F81C8084ED067A11F0D0FE84ED080A89
:101CC00095F85C30204695ED180A082BA5F8A0740D
:101CD00028BF002385F8743484ED020A11F0BEFE9B
:101CE00084ED080A6B6EB0EE480A636005F2A44406
:101CF000D5ED007A2046C4F8109088EEA77AC4ED9E
:101D0000057A84ED028A6660E660C4F81C8084ED82
:101D1000067A11F0A3FE84ED080A95F86830204693
:101D200095ED1B0A082BA5F8D07428BF002385F871
:101D3000A43484ED020A11F091FE002384ED080A18
:101D40002A6F626085F88A3003B0BDEC088BBDE86D
:101D5000F08F00BF0000C842000000000000DC431C
:101D6000DB0FC9400AD723BCDB0F4940027900F5DD
:101D7000C071037D072A88BF0022072B88BF00237C
:101D800080F81421303080F864328142F8D17047F5
:101D900070B5044682B000F2D44500F254662EE0DD
:101DA000F4EE477AF1EE10FA77FE277AC5ED607A05
:101DB0002846012194ED090A11F0B0F9284694ED66
:101DC0000A0A022111F0AAF9284694ED0C0A04210E
:101DD00011F0A4F9D4ED0B7AB7EE007AF5EEC07AE3
:101DE000F1EE10FA2BD9F4EE477A2B463035F1EEAE
:101DF00010FA77FE277AB542C3ED007A27D005F5B1
:101E0000C07094ED0D0A0121019011F087F994ED55
:101E10000E0A0221019811F081F994ED100A01983F
:101E2000042111F07BF9D4ED0F7AB7EE007AF5EECC
:101E3000C07AF1EE10FAB3D8DFED067AB6E72B469A
:101E40003035DFED047AB542C3ED007AD7D102B068
:101E500070BD00BF0AD723BC70B5054600F2D4742C
:101E600000F63426204695ED200A11F0ABFB204603
:101E70004C3495ED1F0A11F0FBFBB442F2D170BD5A
:101E800038B5F2EE007A90F8443090ED120A00F284
:101E90001445082B044620EE270A284628BF0023B5
:101EA00084F8143485ED020A11F0D8FD85ED080A96
:101EB000E36C6B6038BD00BF38B590F8503000F26D
:101EC000444590ED150A0446082B284628BF0023F8
:101ED00084F8443485ED020A11F0C0FD85ED080A4E
:101EE000A36D6B6038BD00BF38B590F85C3000F270
:101EF000744590ED180A0446082B284628BF002395
:101F000084F8743485ED020A11F0A8FD85ED080A05
:101F1000636E6B6038BD00BF38B5F2EE007A90F8A2
:101F2000683090ED1B0A00F2A445082B044620EE11
:101F3000270A284628BF002384F8A43485ED020A26
:101F400011F08CFD85ED080A236F6B6038BD00BF72
:101F50002DE9F04F044600F214402DED0A8B85B0B8
:101F6000DFEDE48A04F18B0704F2D47604F1940ADD
:101F700004F58A75CDE9021211F08EFB04F244409B
:101F8000F0EE40AA11F088FB04F27440B0EE40AAD3
:101F900011F082FB04F2A440F0EE409A11F07CFBB9
:101FA00004F19303B0EE409A019328E0DAED0F7A42
:101FB0003046D4ED216A20EE270A94ED207AD4ED44
:101FC0001D5A79EE0B7A9AED076A20EE260AA5EEE5
:101FD000C6BA20EE070A20EE270A20EE0B0A11F0FF
:101FE000F1FA3046B0EE480A11F0ECF9019B78EEB8
:101FF000808A4C369F4205F1300500F03F8117F88A
:10200000013B002B14BF4FF001084FF000080DD02A
:1020100007EE903A9FEDB86AB7EE007AF8EE677A6D
:10202000C7EE866A77EE667ACAED087AD4ED1E7A34
:10203000F5EE407AF1EE10FA40F0B18005F5A869AE
:1020400005F5707B4146584611F0F0F894F8883059
:10205000F7EE007A2846012BA84BB7EE00BA88BFEE
:102060009AED107A79EE277A88BF20EE070A27EEDC
:10207000800A85ED010A85ED610ADAED187A9AED9C
:10208000000A93ED008A67EEAACA94ED037A9C4B8E
:1020900027EE888A30EE070AD4ED06BA93ED00CA1F
:1020A00067EEABBA27EE8CCA30EE080A30EE0C0AA7
:1020B00030EE2C0A85ED020A11F0D0FC85ED080AFD
:1020C000D4ED077A05F5C073BAEC017A27EE880AD9
:1020D00018469B46A7EE270AA7EE8C0AA7EEAC0A85
:1020E000A7EEAB0A85ED620A11F0B8FC85ED680A2F
:1020F00094ED047A2846DFED836A3AEE077A9FED85
:102100007D6A37EE297A87FE067A87FE4B7A67EE7C
:10211000267A85ED037AC5ED047AD4ED087A7AEE55
:10212000277A77EEA97AC7FE867AC7FECB7A67EE62
:10213000A66AC5ED637AC5ED646A11F0ADFA58463A
:10214000F0EE40BA11F0A8FA94ED027A4146484602
:102150007BEE477A27EE808AA7EE2B8A11F066F88D
:1021600094F8883003F0FD03012B3FF41FAFD4ED4A
:10217000217A304694ED207A60EE277A94ED1D6A3C
:10218000DAED076A39EE0B0A67EE877AA6EE66BAD1
:1021900027EE800A20EE0B0A11F014FA21E7B7EEC1
:1021A000008A9AED087AD4ED0D6A05F5A869012137
:1021B00005F5707B38EE477A4846B0EE480AA7EE40
:1021C000C70A20EE260A10F0A9FFDAED087AB0EE71
:1021D000480AD4ED1E6A78EE677A94ED0E7A484686
:1021E0000221A6EEE70A20EE070A10F097FFDAEDCB
:1021F000087AB0EE480AD4ED1E6A78EE677A94ED5C
:10220000107A48460421A6EEE70A20EE070A10F0ED
:1022100085FFDAED087AB0EE480AD4ED1E6A78EE52
:10222000677A94ED097A58460121A6EEE70A20EE76
:10223000070A10F073FFDAED087AB0EE480AD4ED21
:102240001E6A78EE677A94ED0A7A58460221A6EE65
:10225000E70A20EE070A10F061FFDAED087A94ED44
:102260001E7A042178EE677A94ED0C0A5846A7EEA0
:10227000678A28EE000A10F051FFE3E6224B4BF686
:10228000803622494BF67F30F4EE007AD3ED006AB7
:10229000D3E9014268EEA78A2244204403EB840478
:1022A000A1FB02C7551CBF0A06FB172203EB8202E3
:1022B000D2ED037AA1FB0572A1FB0071920A890A93
:1022C00006FB125506FB1101596003EB850393EDE4
:1022D000037A029B37EE677AC4ED038AC3ED008A66
:1022E000039BE7EE267AC3ED007A05B0BDEC0A8BBE
:1022F000BDE8F08F000000000000A84208000024A4
:10230000F8060024DB0FC940000000C0F119760573
:1023100070B54FF0080C04462DED048B82B090F898
:102320008A30019201330CF1FF3203F00705601986
:102330002B4690F88B6046B112F0FF0CF2D184F876
:102340008A5002B0BDEC048B70BD07EE901ADFED31
:10235000249AB2EE089A84F88A50F8EE670A80F858
:102360008B10B0EE000ADFED1F8A04EB850570EEDE
:10237000E90AC0EE890A11F0F7FBF0EE407AB0EE00
:10238000000A67EEA87AC5ED257A94F88A30E1183C
:1023900004EB830291F88B3092ED258A013300EE35
:1023A000903AF8EEE00A70EEE90AC0EE890A11F000
:1023B000DBFBDDED017ADFED0C6A94F88A30F8EE94
:1023C000677A04EB8304A0EE688A87EEA67A84ED30
:1023D0003D8A84ED357A02B0BDEC048B70BD00BF40
:1023E00000008A420000DC430000FE4200F18B0343
:1023F000933013F8012B8A4202D1002203F8012CFA
:102400008342F6D1704700BF07EE101AF0EE006A63
:10241000F7EE007A034BBAEEE97AE7EE667AC3ED9F
:10242000007A704708000024014B1970704700BF04
:10243000B097002410B50022464C227091F800C0DD
:1024400080F804C0D1F804C0C0F808C0D1F808C0B2
:10245000C0F80CC0D1F80CC0C0F810C091F810C082
:1024600080F814C0D1F814C0C0F818C0D1F818C052
:10247000C0F81CC0D1F81CC0C0F820C0D1F820C0E2
:10248000C0F824C0D1F824C0C0F828C0D1F828C0B2
:10249000C0F82CC0D1F82CC0C0F830C0D1F830C082
:1024A000C0F834C0D1F834C0C0F838C0D1F838C052
:1024B000C0F83CC0D1F83CC0C0F840C091F840C062
:1024C00080F844C0D1F844C0C0F848C0D1F848C032
:1024D000C0F84CC091F84CC080F850C0D1F850C042
:1024E000C0F854C0D1F854C0C0F858C091F858C0D2
:1024F00080F85CC0D1F85CC0C0F860C0D1F860C0A2
:10250000C0F864C091F864C080F868C0D1F868C0B1
:10251000C0F86CC0D1F86CC0C0F870C0D1F878C0F9
:10252000C0F87CC0D1F87CC0C0F880C0D1F880C0B1
:10253000C0F884C091F884C080F888C091F88510F4
:1025400080F88A2080F88910FFF73EFA0123237073
:1025500010BD00BF04000024024B03491B68036048
:10256000FFF768BFC49700241000002410B5074B84
:10257000A2B00446882203EB0131684611F0E0FE68
:1025800069462046FFF756FF22B010BD00000090BC
:1025900003790B7083684B60C3688B600369CB6001
:1025A000037D0B7483694B61C3698B61036ACB61E3
:1025B000436A0B62836A4B62C36A8B62036BCB62B2
:1025C000436B0B63836B4B63C36B8B63036CCB639A
:1025D00090F8443081F84030836C4B64C36C8B645A
:1025E00090F8503081F84C30436D0B65836D4B652E
:1025F00090F85C3081F85830036ECB65436E0B6603
:1026000090F8683081F86430C36E8B66036FCB66D8
:10261000C36F8B67D0F88030CB67D0F88430C1F8B7
:10262000803090F8883081F8843090F8893081F8D3
:102630008530704710B5A4B00A460A4C02A9FFF7CE
:10264000A7FF0949204601EB023101F188020191FF
:1026500002F01EFC02AB88220199204602F014FC15
:1026600024B010BDBC06002400000090143001F01E
:10267000B1B900BF143001F0A9B900BF38B500F1FD
:10268000140504462DED028B284601F091F92846E9
:1026900001F09CF92846B0EE408A01F085F9D0EDB2
:1026A000007AF8EE677A88EE277ABDEC028B84ED2B
:1026B0000E7A38BD90ED0E0A704700BF253001F04C
:1026C0006BBB00BFF0B5032399B00027012512931F
:1026D00006462C4B09A81595CDE90E7340F204531C
:1026E000ADF84030284BCDE91357099301F06AFA51
:1026F00009A801F043FB002836D1244B04AF04465F
:102700000090CDF842301023394604958DF82030E2
:102710001F4BCDE91650CDE906506846059301F0F0
:10272000BBFC0823009A01A909A8ADF804508DF854
:10273000064009940295039300F0E4F800230EA9E3
:1027400038463024049302F043FF03224FF07E53B7
:1027500009A906F114000B930C93CDE90942049AE0
:1027600001F0EAF819B0F0BD40F60132074B1697B8
:1027700004AFADF824200998CDF84230179500F049
:1027800081F8DBE7040204040303000104060403E8
:102790000704010B2DE9F04304462DED028B83B0B5
:1027A000002948D0012140F2011200230091ADF828
:1027B00004208DF80630304A0126304B271D304961
:1027C00004F12908626040F20272A36040F60663D9
:1027D000E16004F125092682A4F8252084F8276009
:1027E000A4F8293084F82B6003F048FC69460546BC
:1027F00048B304F130008DF8066003F09BFB072D11
:1028000034D104F114052046FFF75CFF284601F09F
:10281000DDF82846B0EE408A01F0C6F8D0ED007A27
:10282000F8EE677A88EE277A84ED0E7A03B0BDEC75
:10283000028BBDE8F08340F2011300918DF8061081
:10284000ADF80430B7E704F1300003F073FB39460C
:10285000204602F04DFA484601F0B4F9404601F036
:10286000B1F904F1120000F077F9CAE739462046C1
:1028700002F03EFAC5E700BF050805090507050691
:10288000050A060610B584B003460124ADF804001D
:1028900003A8ADF80C30ADF80E4001F093F92146D5
:1028A00003A801F079FA204603F078FA002103A882
:1028B00001F072FA204603F071FA214603A801F0F4
:1028C0006BFA04B010BD00BF10B5C2F3002384B092
:1028D0000C46017C8DF80D2043EA4402FA240223C1
:1028E0008DF80C2003AA009401F06CFC18B10124AF
:1028F000204604B010BD04460A2003F04FFA2046DB
:1029000004B010BD034670B543F8042B044684B0F0
:1029100007C983E80700A37983B91A210B461E2251
:10292000FA2523742046ADF80C20022303AA009553
:1029300001F048FC28B1012004B070BD1B210B46FA
:10294000EDE70A2003F02AFA4FF4B852009502236B
:10295000ADF80C20204603AA217C01F033FC0028AE
:10296000E9D10A2003F01AFA41F20272009502231B
:10297000ADF80C20204603AA217C01F023FC00289E
:10298000D9D10A2003F00AFA042200950223ADF8F7
:102990000C20204603AA217C01F014FC0028CAD197
:1029A0000A2003F0FBF9062200950223ADF80C2063
:1029B000204603AA217C01F005FC0028BBD10A2097
:1029C00003F0ECF941F2082200950223ADF80C2047
:1029D000204603AA217C01F0F5FB0028ABD10A2098
:1029E000064603F0DBF90095022303AA217C20466A
:1029F000ADF80C6001F0E6FB00289CD1304603F0F6
:102A0000CDF9009522790C232046002A8DF80C3050
:102A100003AA4FF0020314BF622142218DF80D106A
:102A2000217C01F0CFFB002885D1304603F0B6F9B8
:102A30002279D4E902310B43DBB20AB943F04003F7
:102A400062790AB143F020030E22FA258DF80D3089
:102A50002046009502238DF80C2003AA217C01F06A
:102A6000B1FB00287FF467AF0A2003F097F910222A
:102A700000950223ADF80C20204603AA217C01F02A
:102A8000A1FB00287FF457AF0A2003F087F9122139
:102A900000950223ADF80C1003AA217C204601F01A
:102AA00091FB00287FF447AF0A2003F077F9012259
:102AB00009212046FFF708FF003818BF01203BE737
:102AC000F0B5102387B0234C0122002501260027F2
:102AD00002A920460195CDE902234FF48052CDE9A9
:102AE000046709F017FD642003F0A2FE02A94FF469
:102AF00080522046CDE9046702261027CDE90267FF
:102B000009F008FD0322102302A92046CDE9022383
:102B100000230422CDE904234FF4805209F0FAFC8B
:102B200040F23223042202A9019310232046CDE96A
:102B30000223019A012305924FF48052049309F075
:102B4000E9FC40F60601204609F004FD284607B0DE
:102B5000F0BD00BF04A200241C4B00221C494FF012
:102B6000400C30B5054689B00220596007219A60B3
:102B70001A620124DA620A224FF4006EDC600692C7
:102B80002022CDE9000104200821CDE90201032023
:102B90001021CDE9040108206946C3E904024FF47D
:102BA000C072181DC3E906C24FF48052C3E909E29E
:102BB00009F086FC38B92846FFF782FF003818BFB5
:102BC000012009B030BD204609B030BD00A200246C
:102BD00040410052614A0021D0B513688EB00A917D
:102BE000002B40F0B9805E4B01214FF683700C241E
:102BF00011600221D3F8D4200026032742F480522A
:102C0000C3F8D420D3F8D42002F480520092009A62
:102C1000D3F8E02042F01002C3F8E020D3F8E0201F
:102C200002F010020192019AD3F8E02042F0400233
:102C3000C3F8E020D3F8E02002F040020292029AAA
:102C4000D3F8E02042F00802C3F8E020D3F8E020F7
:102C500002F008020392039AD3F8E02042F4807253
:102C6000C3F8E020D3F8E02002F480720492049AC2
:102C7000D3F8E02042F08002C3F8E020D3F8E0204F
:102C800002F080020592059AD3F8E02042F020027B
:102C9000C3F8E020D3F8E02002F020020692069A62
:102CA000D3F8E02042F00402C3F8E020D3F8E0308B
:102CB0000C9403F0040307930323079A0B93CDE9C5
:102CC000080108A9274804F059FE48F237120223E8
:102CD00008A925480C94CDE90823CDE90A6704F03A
:102CE0004DFE4CF20372022308A920480C94CDE952
:102CF0000823CDE90A6704F041FE40F2FF62022397
:102D000008A91B480C94CDE90823CDE90A6704F013
:102D100035FE4FF60C72022308A916480C94CDE933
:102D20000823CDE90A6704F029FE4FF63F0202238B
:102D300008A911480C94CDE90823CDE90A6704F0ED
:102D40001DFE2022022308A90A480C94CDE90A6737
:102D5000CDE9082304F012FE0EB0D0BDFCA1002482
:102D6000004402580010025800180258000C025883
:102D700000200258001C0258001402582DE9F04FA0
:102D8000DFF8108406460D46144608F118002DEDB4
:102D9000028B89B000AF02F013FDD8F8183073B37E
:102DA000D8F81C30D8F80490002B43690BBF4FF0C3
:102DB000080A4FF0100A4FF0020B4FF0040BB9F164
:102DC000000F2AD0A200EA46012B02F1070222F0EE
:102DD0000702ADEB020D6846ADEB020D694600F04F
:102DE0003F81022B00F0D680002B6FD02246C847CF
:102DF000D5462437BD46BDEC028BBDE8F08FD8F830
:102E00001C30002BF5D0D8F804904FF0080A4FF092
:102E1000020B4369B9F1000FD4D1FB61D8F800303F
:102E2000BB61002BE5D0D54802F03CFD6B46BBF101
:102E3000020F786108EE103AFB6900F083816A4660
:102E40005146A2EBC40295466200EA46B2FBFBF291
:102E5000AAEBC40085460AEB8200EE46F861ADEBB2
:102E6000010DF8690EEB820CC7F810C0EC46ADEB13
:102E7000010D00EB8201CCF80400CCF8081001EB46
:102E800082013869E946CCF80C1000EB8201CCF8DD
:102E900000A001EB8202C9E900E0C9E90212012B9E
:102EA00000F06483022B00F06C82002B00F0808124
:102EB000620849466046BB69984718EE103A2437C5
:102EC0009D46BD46BDEC028BBDE8F08F002C8DD039
:102ED0001A46D8ED0C6A9FEDB27A8446331D36F956
:102EE00022E00CF1080C07EE90EA33F922E00232FE
:102EF000F8EEE77A944267EE877A67EEA67A4CEDB1
:102F0000027A07EE90EAF8EEE77A67EE877A67EEE4
:102F1000A67A4CED017AE2D8F9612246C847984E6C
:102F2000D8ED0D6A0020F9692B1D9FED9E7A9FED6B
:102F30009E6ADFED9E5A22E0F4EEC67AF1EE10FAB8
:102F4000C0F2C88447F6FE72D1ED017A45F8202020
:102F500066EEA77AF4EEC77AF1EE10FA40F2F0804E
:102F6000F4EEC67AF1EE10FAC0F2D58447F6FE729E
:102F700043F820200230083184427FF639AFD1ED8A
:102F8000007A66EEA77AF4EEC77AF1EE10FAD3D89B
:102F90003246D9E7002C3FF429AFD8ED0C6A8446BD
:102FA0009FED787A0022331D8E4656F822100CF1E0
:102FB000080C07EE901A53F822100232F8EEE77A66
:102FC000944267EE877A67EEA67A4CED027A07EEB6
:102FD000901AF8EEE77A67EE877A67EEA67A4CEDFC
:102FE000017AE2D871462246C7F81CE0C847664E0F
:102FF000D8ED0D6A0020F9692B1D9FED6A7A9FEDCF
:103000006A6ADFF894C120E0F4EEC67AF1EE10FAB5
:10301000C0F279843246D1ED017A45F8202066EE7F
:10302000A77AF4EEC77AF1EE10FA40F28780F4EE58
:10303000C67AF1EE10FAC0F25E84324643F82020E0
:103040000230083184427FF6D3AED1ED007A66EECD
:10305000A77AF4EEC77AF1EE10FAD5D86246DAE72D
:10306000002C3FF4C3AED8ED0C6A86469FED477A3C
:103070004FF0000C331D56F82C200EF1080E82F490
:103080000002A2F5000207EE902A53F82C200CF162
:10309000020CF8EEE77A82F400026445A2F5000221
:1030A00067EE877A67EEA67A4EED027A07EE902AEF
:1030B000F8EEE77A67EE877A67EEA67A4EED017A48
:1030C000D9D8F9612246C847314ED8ED0D6A0020A3
:1030D000F9692B1D9FED337A9FED336ADFF8BCC091
:1030E0001FE0F4EEC67AF1EE10FAC0F2FC8332462D
:1030F000D1ED017A45F8202066EEA77AF4EEC77A82
:10310000F1EE10FA18D9F4EEC67AF1EE10FAC0F228
:10311000DA83324643F820200230083184427FF6B9
:1031200067AED1ED007A66EEA77AF4EEC77AF1EEDB
:1031300010FAD6D86246DBE76246EBE762467DE7E7
:10314000324615E7A100D6466208073121F0070193
:10315000ADEB010DEA46ADEB010D6946ADEB0E0D91
:103160000AEB8200EC46ADEB0E0D01EB8202F8613A
:10317000E946CCE900A0C9E9001290E654A2002477
:103180000280FFFF000000300082FF7F000000345B
:1031900082FF7F0038A20024007E00807E0080FF36
:1031A0000000003804FF7FBF04FF7F3F00FEFF46A2
:1031B000002C00F0C982BBF1020FD8F8242000F0E7
:1031C000FA827969C7F8049002EB810E5FED0C5A20
:1031D0008A00DCF808100EF104007A611A46DCF867
:1031E0000C303B61331DD7F810903D61FD69C7E994
:1031F00002CB8C46834636F92210D8ED0C7A06EEC7
:10320000101A33F9221006EE901A3EF92210B8EE89
:10321000C66A07EE101AF8EEE66A3BF92210B8EE1D
:10322000C77A26EE256A66EEA56A27EE257A26EE8F
:10323000276A66EEA76A27EE277A07EE901A5108EA
:103240000232F8EEE77A0AEB8100944280ED006AE0
:1032500005EB810067EEA57AC0ED006A0CEB8100FA
:1032600009EB810180ED007A98ED0C7A67EE877AA0
:10327000C1ED007ABFD8D7F804903D69D7E902CBF9
:1032800060466208BB6949469847D8F82C307A698D
:10329000D8ED0D6A1A441FED3D7A1FED3D6A2B1DD6
:1032A000904602F1040A5FED3F5A0022A84ED9E988
:1032B00000EC51E0F4EEC67AF1EE10FAC0F2C782EB
:1032C00047F6FE7045F822000CEB0100D0ED007AC5
:1032D00066EEA77AF4EEC77AF1EE10FA4BD9F4EE67
:1032E000C67AF1EE10FAC0F2BA8247F6FE70BBF170
:1032F000020F43F822002BD0D9F808000844D0ED83
:10330000007A66EEA77AF4EEC77AF1EE10FA36D9B3
:10331000F4EEC67AF1EE10FAC0F2CD8247F6FE70F6
:1033200048F82200D9F80C000144D1ED007A66EE8D
:10333000A77AF4EEC77AF1EE10FA1ED9F4EEC67A47
:10334000F1EE10FAC0F2AF8247F6FE714AF8221091
:10335000023294427FF6B1AD51080EEB8100890034
:10336000D0ED007A66EEA77AF4EEC77AF1EE10FAA5
:10337000A0D83046A6E73046B9E73146E6E7304602
:10338000CEE7002C00F0E081BBF1020FD8F824302A
:1033900000F0E1817A69DCF8081003EB820EC7F8CF
:1033A00004909300DFED6B5A0EF1040000227B6164
:1033B000DCF80C303B61331DD7F810903D61FD699E
:1033C000C7E902CB8C46834656F82210D8ED0C7A1A
:1033D00007EE101A53F82210B8EEC76A07EE101A5B
:1033E0005EF82210F8EEC76A07EE101A26EE256A7C
:1033F0005BF82210B8EEC77A66EEA56A26EE276A59
:1034000027EE257A66EEA76A27EE277A07EE901A4E
:1034100051080232F8EEE77A0AEB8100944280ED1F
:10342000006A05EB810067EEA57AC0ED006A0CEB3F
:10343000810009EB810180ED007A98ED0C7A67EE4E
:10344000877AC1ED007ABFD8D7F804903D69D7E9F3
:1034500002CB60466208BB6949469847D8F82C30D1
:103460007A69D8ED0D6A1A449FED3E7A9FED3E6A67
:10347000131D9246DFF8E4C00022FB612B1D364E7F
:10348000D9E9008E4EE0F4EEC67AF1EE10FAC0F201
:10349000FC81304645F822000EEB0100D0ED007AA9
:1034A00066EEA77AF4EEC77AF1EE10FA49D9F4EE97
:1034B000C67AF1EE10FAC0F2EF813046BBF1020F8E
:1034C00043F822002AD0D9F808000844D0ED007A49
:1034D00066EEA77AF4EEC77AF1EE10FA35D9F4EE7B
:1034E000C67AF1EE10FAC0F2C98130464AF82200DD
:1034F000D9F80C000144D1ED007A66EEA77AF4EE1B
:10350000C77AF1EE10FA1ED9F4EEC67AF1EE10FA8F
:10351000C0F2AD813146F86940F82210023294427F
:103520007FF6CBAC510808EB81008900D0ED007A22
:1035300066EEA77AF4EEC77AF1EE10FAA3D86046E9
:10354000A8E76046BAE76146E5E76046CEE700BF18
:103550000280FFFF000000300082FF7F007E0080BD
:103560000000003404FF7FBF04FF7F3F002C00F009
:10357000EB807A690021D8F82430C7F8109003EB6B
:10358000820ED7F81C909300FD610EF104021FED2E
:103590000C6A7B61331D154656F821204808D8ED8A
:1035A0000C6ABBF1020F82F40002A2F5000207EEE2
:1035B000902A53F8212082F40002B8EEE77AA2F5AF
:1035C000000227EE067A07EE902A0AEB8002F8EE58
:1035D000E77A27EE267A67EE867A82ED007A09EBA3
:1035E00080024FEA800067EEA67AC2ED007A27D00B
:1035F0005EF8212082F40002A2F5000207EE902A74
:1036000055F8212082F40002B8EEE77AA2F5000214
:1036100027EE067A07EE902ADCF80820F8EEE77A23
:10362000024427EE267A67EE867A82ED007A98EDDC
:103630000C7ADCF80C2067EE877A0244C2ED007A3F
:1036400002318C42A8D8D7F8109060466208BB6956
:103650004946FD699847D8F82C307A69D8ED0D6A4B
:103660001A441FED407A1FED406A131D9246DFF8A1
:10367000C4C20022FB612B1DAB4ED9E9008E4EE087
:10368000F4EEC67AF1EE10FAC0F2C580304645F885
:1036900022000EEB0100D0ED007A66EEA77AF4EE80
:1036A000C77AF1EE10FA49D9F4EEC67AF1EE10FAC3
:1036B000C0F2BF803046BBF1020F43F822002AD08F
:1036C000D9F808000844D0ED007A66EEA77AF4EE47
:1036D000C77AF1EE10FA35D9F4EEC67AF1EE10FAA7
:1036E000C0F2AE8030464AF82200D9F80C000144FE
:1036F000D1ED007A66EEA77AF4EEC77AF1EE10FA11
:103700001ED9F4EEC67AF1EE10FAC0F28B80314683
:10371000F86940F82210023294427FF6CEAB51088D
:1037200008EB81008900D0ED007A66EEA77AF4EE0E
:10373000C77AF1EE10FAA3D86046A8E76046BAE768
:103740006146E5E76046CEE7224649466046BB69EA
:103750009847FFF7B2BBC7F810B0002298ED0C6A8B
:10376000331DDFED726AD7F81CB0786956F8221065
:1037700007EE901A53F82210B8EEE77A07EE901A87
:1037800051080232F8EEE77A27EE267A0AEB810E2C
:1037900094420BEB810167EEA67A27EE067A67EE7C
:1037A000867A8EED007AC1ED007ADFD88300D7F8F3
:1037B00010B07B614DE61A46C7F810B098ED0C6A60
:1037C000331DDFED5B6AD7F81CB0786936F922103B
:1037D00007EE101A33F9221007EE901AB8EEC77AE6
:1037E00051080232F8EEE77A27EE267A0AEB810ECC
:1037F00094420BEB810167EEA67A27EE067A67EE1C
:10380000867A8EED007AC1ED007ADFD88300D7F892
:1038100010B07B6134E5F0EE675AFEEEE45A15EE27
:10382000900A34E7F0EE675AFEEEE45A15EE901A6D
:103830006EE7F0EE675AFEEEE45A15EE900A3AE7AC
:10384000F0EE675AFEEEE45A15EE900A4BE767EE8B
:10385000A57AFDEEE77A17EE900A00B232E567EE40
:10386000A57AFDEEE77A17EE900A00B23FE5F0EE9A
:10387000675AFEEEE05A15EE901A4CE6F0EE675AE3
:10388000FEEEE05A15EE900A30E6F0EE675AFEEED4
:10389000E05A15EE900AFDE5F0EE675AFEEEE05AAA
:1038A00015EE900A0AE667EEA57AFDEEE77A17EEC6
:1038B000901A09B24AE567EEA57AFDEEE77A17EEAF
:1038C000900A00B22CE5F0EE675AFEEEE45A15EECF
:1038D000902A1FE467EEA57AFDEEE77A17EE902AAC
:1038E00012B2FFF731BBF0EE675AFEEEE45A15EE66
:1038F000902AFFF7FDBBF0EE675AFEEEE05A15EE98
:10390000902AFFF79BBBF0EE675AFEEEE05A15EEE9
:10391000902AFFF780BB67EEA57AFDEEE77A17EEF7
:10392000902A12B2FFF724BB82FF7F000000003014
:10393000000000387E0080FF30B5184C154685B079
:10394000046004F1080EEC460FC98EE80F00D4EDB8
:10395000047AF5EEC07A8CE80F00F1EE10FA1ADD69
:10396000B7EE006A94ED057A27EE277AC6EE276A4D
:1039700084ED0D7AC4ED0C6A6DB1204640F8185FF5
:1039800001F01EFF064903690020064A2162A26277
:10399000E36005B030BD012005B030BD38A2002481
:1039A000002000300000003000680830704700BF81
:1039B000B1F5807F03680A4628BF4FF48072B1F5E5
:1039C000807F9A6094BF0020012070470068183003
:1039D00001F056BF30B5046883B008480D46A368AF
:1039E000A26A216A9B00009004F1180001F0EAFE2F
:1039F0000020C4E9000503B030BD00BF7D2D0008E4
:103A000010B4074B4FF07E5130240022032019617F
:103A10009C60D8605DF8044B5961C3E90622704789
:103A200038A20024704700BF254A937803B9704735
:103A30000B68002BFBD04FF0000C70B56546A3EB74
:103A40000C04032C34D910F80C60844416F00E0FCB
:103A500006F00F042CD00F2C2AD0144494F81048F0
:103A600034B3013C0CF1010E5EFA84FED2F804344A
:103A7000D2F80844013B1B1BC3F30903F3B11CF844
:103A8000016FD2F80434D2F80844013B1B1BC3F386
:103A90000903002BF5D0D2F80834F44503F10104F2
:103AA0001344C4F309041E71C2F80844DED10B6844
:103AB0000435ADB29D42AC46C1D370BD9370F6E7FC
:103AC00070A200244FF0010CCAB20F4BA2EB0C0203
:103AD000B2FA82F210B552090C4C82B00460204652
:103AE0006170114683F800C001920AF041FD002385
:103AF0000A20A37002F052F9019A2046044902B04C
:103B0000BDE810400AF0BABDBCC4002470A2002475
:103B1000293A0008012203689A7070470368D3F8B5
:103B20000804D3F80434C01AC0F30900704700BF7A
:103B30000268D2F80834D2F804145B1AC3F30903FC
:103B4000002BF6D0D2F80434D1180133C3F30903A3
:103B50000879C2F80434704703689878704700BF4A
:103B60000368D3F80424C3F80824704710B5104B39
:103B7000104C03F1100E04F5016C0FCB8CE80F0014
:103B80009EE80F0004F5026C8CE80F000A484FF61F
:103B90000F010723094AC4F830082046A4F8341856
:103BA00084F836380649BDE810400FF063BF00BF07
:103BB0006C53010870A2002480707FF00000002484
:103BC000253A00088378022B30B504468FB037D0F1
:103BD000032B33D0012B31D000230A93E378012B40
:103BE0002AD0022B28D000230B93002320460C93CD
:103BF00002F0FCFC0546204602F000FD2378099007
:103C0000082B13D8DFE803F01F3245586B7E91A4D0
:103C10000500594BD3F8E02042F48072C3F8E0204D
:103C2000D3F8E03003F480730893089B09A9284671
:103C300003F0A4FE0FB030BD0B93D6E70A93CDE797
:103C400011230A93CAE74C4B09A92846D3F8E02070
:103C500042F00102C3F8E020D3F8E03003F00103A2
:103C60000093009B03F08AFE0FB030BD424B09A9C0
:103C70002846D3F8E02042F00202C3F8E020D3F84F
:103C8000E03003F002030193019B03F077FE0FB0D5
:103C900030BD394B09A92846D3F8E02042F0040290
:103CA000C3F8E020D3F8E03003F004030293029B52
:103CB00003F064FE0FB030BD2F4B09A92846D3F89E
:103CC000E02042F00802C3F8E020D3F8E03003F02F
:103CD00008030393039B03F051FE0FB030BD264B46
:103CE00009A92846D3F8E02042F01002C3F8E020EA
:103CF000D3F8E03003F010030493049B03F03EFE7E
:103D00000FB030BD1C4B09A92846D3F8E02042F083
:103D10002002C3F8E020D3F8E03003F0200305933D
:103D2000059B03F02BFE0FB030BD134B09A92846AD
:103D3000D3F8E02042F04002C3F8E020D3F8E030AE
:103D400003F040030693069B03F018FE0FB030BD4E
:103D5000094B09A92846D3F8E02042F08002C3F8B5
:103D6000E020D3F8E03003F080030793079B03F0D3
:103D700005FE0FB030BD00BF0044025838B50546FF
:103D800002F034FC0446284602F038FC0146204686
:103D9000BDE8384003F0FABF70B506460D4602F0A4
:103DA00025FC0446304602F029FC2A1E0146204626
:103DB00018BF0122BDE8704003F0EEBF00231222BD
:103DC00070B586B0CDE9022304930368032B01D8B4
:103DD00004230593061D841D304602F007FC0546AA
:103DE000304602F00BFC034601A92846019303F07C
:103DF000C5FD204602F0FAFB034620461C4602F0B1
:103E0000FDFB01A903462046019303F0B7FD06B070
:103E100070BD00BF634A0368934210B58CB028D0D0
:103E2000614A934258D0614A934200F09480604ABC
:103E3000934201D00CB010BD5E4C5F48D4F8E03026
:103E400043F00203C4F8E030D4F8E03003F002039A
:103E50000A930A9BFFF7B2FFD4F8F43043F08003D3
:103E6000C4F8F430D4F8F43003F080030B930B9BC8
:103E7000E0E7504C5148D4F8E03043F00203C4F876
:103E8000E030D4F8E03003F002030193019BFFF728
:103E900095FFD4F8E83000221F2043F400131146A8
:103EA000C4F8E830D4F8E83003F400130293029B1E
:103EB000D4F8D83043F00103C4F8D830D4F8D8305F
:103EC00003F001030393039B02F0DCFC1F200CB002
:103ED000BDE8104002F014BD364C3948D4F8E0304B
:103EE00043F08003C4F8E030D4F8E03003F08003FE
:103EF0000493049BD4F8E03043F00203C4F8E030AC
:103F0000D4F8E03003F002030593059BFFF756FF5A
:103F1000D4F8E8300022212043F480031146C4F88D
:103F2000E830D4F8E83003F480030693069BD4F815
:103F3000D83043F00103C4F8D830D4F8D83003F0B7
:103F400001030793079B02F09DFC21200CB0BDE804
:103F5000104002F0D5BC1B48FFF730FF154B002284
:103F60004820D3F8E840114644F40004C3F8E84080
:103F7000D3F8E84004F400040894089CD3F8D8402F
:103F800044F00104C3F8D840D3F8D83003F001035B
:103F90000993099B02F076FC48200CB0BDE8104064
:103FA00002F0AEBC0054004000580040005C0040ED
:103FB000001C00580044025834AD0024ACAA002470
:103FC00084AB00245CAC00242DE9F0431A4B87B08D
:103FD00000254FF010099E46EC46184BFF22E046A4
:103FE00067461A700EF118060EF13004CDE900553F
:103FF000CDE90255ADF80090BCE80F00CDE90455BD
:10400000AEE80F009CE803000095ADF800908EE844
:104010000300B8E80F000FC69CE803000095ADF858
:10402000009086E803000FCF0FC49CE8030084E8EB
:10403000030007B0BDE8F08398000024A8AA00247C
:1040400010B5EFF3108472B6084B1A78120602D539
:1040500004B962B610BD1B78D82205485BB202FBDA
:104060000300143003F038F9F2E700BFA8AA0024D7
:10407000ACAA0024014804F027BD00BF38AB0024DF
:10408000014804F021BD00BF10AC0024014804F039
:104090001BBD00BFE8AC00242DE9F0430F68D82415
:1040A0003F4D85B007FB04F4032F05EB04030360C9
:1040B00040DCCB680E46012B3CD84DD04FF0D808E1
:1040C000B646DFF8FC9008FB0758BEE80F00C44670
:1040D000ACE80F00DEF800300DF1100ECCF8003027
:1040E000D8F808C099E80F000EE90F000EEB87031F
:1040F000BCF1010F53F8103CC8F88C3031D0BCF142
:10410000020F42D0BCF1000F35D0317C8C34D82363
:10411000002201202C4403FB07534900C3E9260277
:10412000C3F894102046C3E92822C3E92A2204F0E8
:10413000BDFA18B1012005B0BDE8F0830146204664
:1041400004F0CEFC0028F5D10146204604F0F2FC34
:10415000003818BF0120EEE70B7C103B672BADD970
:10416000E8E701F087FF0F4B98420CBF0E4B0F4B57
:10417000C8F89030C9E701F07DFF0A4B98420CBFA8
:104180000B4B0C4BC8F89030BFE701F073FF054BA9
:1041900098420CBF084B094BC8F89030B5E700BFF8
:1041A000ACAA0024000E27072D0FB0303211D0200A
:1041B0005F4390608A62E030200BA0101A098010E3
:1041C0008C5301082DE9F041D0F8008082B00D46F3
:1041D00017461E4608F18C04204604F07DFC20287A
:1041E000FAD1D8F80C3073B96D002046089C3346DC
:1041F0003A46A9B2009404F0AFFA003818BF012083
:1042000002B0BDE8F081089B32463946204604F0F2
:1042100077FBF2E7044B10221A7483F8E82083F846
:10422000C02183F898227047ACAA002430B500233F
:1042300095B04FF48071062204460B9306921393B7
:10424000CDE90C13CDE90E33CDE9113301F016FFA2
:1042500007282BD004F1100541F2883206A9284620
:1042600005F0BAFB28B10123184684F85C3015B07C
:1042700030BD0222022306A92846CDE900231022E0
:104280000123CDE9022300224FF48003CDE904236A
:1042900005224FF0807306926A460F9341F28833ED
:1042A00005F006FD0028DED115B030BD0323012046
:1042B00084F85C3015B030BD70B50023A4B04FF069
:1042C00080724FF480750446ADF806300D93CDE949
:1042D00010320122CDE90E53CDE91223CDE914337A
:1042E000002943D0F02300F1100508AEADF80630E8
:1042F000C02341F2883231462846089305F06CFB12
:1043000028B10123184684F85C3024B070BD41F216
:1043100088320DF10601284605F0C8FB0346002847
:10432000EFD105224FF480711E93284616924FF06C
:1043300080721B9321931F9202AA9FED1F7BCDE9F0
:104340001C13CDE922338DED027B9FED1D7B41F2E5
:10435000883316A98DED047B9FED1B7B8DED067BCD
:1043600005F0A6FC0028CCD124B070BD00F11005EA
:1043700008AE612341F2883231462846089305F0A1
:104380002BFB0028BDD141F288320DF106012846F1
:1043900005F00AFC0028B4D1BDF80630204623F011
:1043A000780343F04003ADF80630FFF73FFF0028E5
:1043B0009ED0A6E7AFF300800000000001000000DF
:1043C000100000000100000000000000000040009C
:1043D0002DE9F04F00234FF4807501264FF08078CF
:1043E00004462DED028BABB08DF80730139321936B
:1043F000299314950E96CDF85C80CDE91533CDE95F
:104400001863CDE91A33CDE92253CDE92433CDE940
:10441000273306231C9301F031FE072808D004F14E
:10442000100741F288321CA9384605F0D5FA40B190
:104430000123184684F85C302BB0BDEC028BBDE83C
:10444000F08F4FF0020A4FF0020B4FF0050941F2D6
:10445000883308AA1CA93846CDF89480CDF870900E
:104460009FED2D8BCDE908AB4FF0000A4FF4800B88
:104470008DED0A8BCDE90CAB05F01AFC0028D7D1E5
:1044800041F2883238460EA905F0A6FA0028CFD1AD
:10449000402341F288320DF1070138468DF807308C
:1044A00005F004FB0028C3D141F288330EA902AA0B
:1044B0003846CDF83890CDF85C809FED197B8DEDB6
:1044C000048BCDE906AB8DED027B05F0F1FB0346D5
:1044D0000028ADD1CDF870904FF00109CDF894804F
:1044E0004FF00008219308AA29931CA93846229569
:1044F000CDE92333CDE9273341F288338DED0A8BA3
:10450000CDE90CABCDE9088905F0D2FB002893D0AA
:10451000304684F85C608FE7100000000100000066
:1045200040000000400000002DE9F043A3B0044625
:104530000D4601F0A3FD072800F0A9802868234656
:10454000AA6804F11006696807C3AA8930461A8070
:10455000257B677B05F022FAE0B9574B012D4FF020
:104560000108E061236114BF4FF480134FF400038E
:10457000C4E9058893FAA3F3B3FA83F34FF480797F
:10458000013BC4F82490C4E90B002362304605F0D7
:1045900099F938B10122134684F85C20184623B0FB
:1045A000BDE8F08366230B90139041F2883206A990
:1045B0000693CDE90C90CDE90E00CDE9110030460F
:1045C00005F00AFA0028E5D1992341F2883206A9BC
:1045D0003046069305F000FA0028DBD105231C9035
:1045E00019906A4614934FF08073219014A91D937B
:1045F00041F288339FED2A7BCDE91A90CDE91F0067
:104600008DED007B9FED287B30468DED027B9FED8D
:10461000287B8DED047B05F04BFB0028BAD12946A1
:104620002046FFF749FE0028B4D12046FFF7D0FE10
:1046300003460028AED1002FB0D118933046002792
:10464000002606AA14A9CDF86890CDE91F33EB2304
:1046500014934FF440631B934FF4005317934FF49C
:1046600040431C93A0231693062319934FF08053C5
:1046700021934FF04073CDE906671D9305F090FB41
:10468000034600288AD0434684F85C8086E70123ED
:104690000322184684F85C2023B0BDE8F08300BFF5
:1046A00000000000010000001000000001000000F8
:1046B0000000000000004000005000520000000018
:1046C0002DE9F0414173A2B0044601F0D7FC072860
:1046D00023D004F11005267B677B284605F05EF9A0
:1046E000D8B90123012EE061C4E90533524B23619F
:1046F00014BF4FF480134FF4000393FAA3F3B3FAFB
:1047000083F34FF48078013BC4F82480C4E90B00A4
:104710002362284605F0D6F868B10223002221461C
:10472000204684F85C306273FFF7FEFE01231846D2
:1047300022B0BDE8F08166230B90139041F28832DD
:1047400006A90693CDE90C80CDE90E00CDE9110054
:10475000284605F041F90028DFD1992341F288323B
:1047600006A92846069305F037F90028D5D1052378
:104770001C9019906A4614934FF08073219014A9ED
:104780001D9341F288339FED267BCDE91A80CDE958
:104790001F008DED007B9FED247B28468DED027B75
:1047A0009FED237B8DED047B05F082FA0028B4D1C8
:1047B00031462046FFF780FD0028AED12046FFF7A6
:1047C00007FE03460028A8D1002FB0D11893002679
:1047D000002706AA14A92846CDF86880CDE91F3322
:1047E0004FF0805321934FF040731D93EB231493AC
:1047F0004FF440631B934FF4005317934FF440431F
:104800001C93A02316930623CDE90667199305F0A0
:10481000C7FA034600288AD07FE700BFAFF30080C5
:104820000000000001000000100000000100000076
:104830000000000000004000005000522DE9F04F41
:10484000A3B004460E46914698469DF8B07001F01C
:1048500015FC072860D0637B012B2FD1B9F5807F31
:104860004FF480634A464FF0000528BF4FF4807232
:104870000D934FF4807A4FF400534FF0020B4FF03A
:1048800080792046079610920E950B951395CDF8DA
:1048900030A0CDF818B00993CDF83C90CDE9115572
:1048A000FFF7C4FC0646E0B1637B002B3BD101233C
:1048B000184684F85C3023B0BDE8F08F012521460E
:1048C00020466573FFF730FE0028C7D00022022380
:1048D00021462046627384F85C30FFF725FE2846A7
:1048E000E9E704F1100541F2883206A9284605F0EF
:1048F00073F838B3637B002BD9D02146204666730A
:10490000FFF712FE0028D2D021462046667384F8B5
:104910005CB0FFF709FECAE70323012084F85C308E
:1049200023B0BDE8F08F214620466573FFF7FCFDFC
:104930000028BCD021462046657384F85CB0FFF7A0
:10494000F3FDB4E7414641F28832284605F0AEF85F
:10495000034638B1637B002BA9D000212046FFF726
:10496000AFFEA4E700221993219305212846CDF834
:1049700068A0149114A9CDF87490CDE91B33CDE94A
:104980001F330123CDE9002310220123CDE90223A7
:1049900000224FF48003CDE9042341F288336A46B4
:1049A00005F086F9014658B9002F84D0607B0028B5
:1049B00081D02046FFF784FE003818BF01207AE737
:1049C0000122637B84F85C20002B3FF470AFC4E7C6
:1049D0002DE9F04F21F07048D5B211F0FF01834668
:1049E0001E462DED068BABB004957CD1FF2A40F21C
:1049F0005081110A1C46CDF8188003EB0123039364
:104A00004B1E0593A8EB06039FEDB3AB9FEDB49B44
:104A10009FEDB58B9A4613E09BF80D3043B1594694
:104A200058468BF80D80FFF77FFD002840F0498144
:104A300001238BF85C3004F58074039B9C4274D096
:104A400001F01CFB072804EB0A0566D09BF80D302B
:104A5000012B09D00123594658468BF80D30FFF73A
:104A600063FD002840F0A1804FF480634FF0000800
:104A70000F9502274FF4807515934FF080764FF411
:104A800000535846CDF85880CDF84C80CDF86C8056
:104A9000149518950E9711931796CDE91988FFF77D
:104AA000C5FB81460028B7D10BF1100841F28832CE
:104AB0000EA9404604F090FF002854D09BF80D301A
:104AC000002BB5D0594658468BF80D90FFF72CFDBA
:104AD0000028ADD0594658468BF80D908BF85C7085
:104AE000FFF722FDA4E7FF2AC1F5807700F2978047
:104AF000AF4280F08E80A5F5807400253A460C44C4
:104B000000954146FFF79AFEF319224608EB07018C
:104B100058460095FFF792FE12E0032304F58074D7
:104B20008BF85C30039B9C428AD1DDF81880059B92
:104B300008F5807808EB0321049B002B40F0AE8041
:104B40009BF80D304BB10024594658468BF80D4068
:104B5000FFF7EAFC002840F0A98000202BB0BDEC54
:104B6000068BBDE8F08F079041F28832214640461F
:104B700004F09CFF814618B39BF80D20002A3FF4F7
:104B800057AF079B594658468BF80D30FFF7CCFCC2
:104B9000079B00283FF44CAF594658468BF80D3020
:104BA0008BF85C70FFF7C0FC42E70023594658467B
:104BB0008BF80D3002238BF85C30FFF7B5FC3AE739
:104BC0000523404608AA1CA91C9341F2883322956C
:104BD0002596CDF88490CDF8A490CDE92399CDE920
:104BE00027998DED08AB8DED0A9B8DED0C8B05F0B3
:104BF0005FF800283FF41FAF01238BF85C309BF86F
:104C00000D30002B3FF414AF49465846FFF758FDCE
:104C10000EE7002441460094FFF710FE90E7A2F54E
:104C200080744FF000093A463E442144CDF800908C
:104C300047440D0ACCB24146FFF700FE6B1E0393BA
:104C4000DDB12B02A6EB070A07EB05283D460493CE
:104C50000AEB0503294605F580754FF48072584626
:104C6000CDF80090FFF7EAFD4545F1D1049B07F52B
:104C700080771E44039B07EB0327002C3FF460AFB3
:104C8000002033462246394600905846FFF7D6FDAD
:104C900056E700914146FFF7D1FD51E700201A4643
:104CA000234600905846FFF7C9FD49E702235946BD
:104CB00058468BF80D408BF85C30FFF735FC01202F
:104CC0004CE7594658468BF80D808BF85C70FFF71F
:104CD0002BFCADE6AFF300800000000001000000F7
:104CE0001000000001000000000000000000400073
:104CF0002DE9F043624CA3B00D46046001F0BEF90B
:104D0000072800F0A980286823466968AA6807C3B5
:104D10001E46AB8926F8043B3046257B677B04F0B2
:104D20003DFEE0B9574B012D4FF00108E0612361D2
:104D300014BF4FF480134FF40003C4E9058893FABD
:104D4000A3F3B3FA83F34FF48079013BC4F82490C2
:104D5000C4E90B003046236204F0B4FD38B10122EF
:104D6000134684F85C20184623B0BDE8F083662320
:104D70000B90139041F2883206A90693CDE90C906E
:104D8000CDE90E00CDE91100304604F025FE0028E3
:104D9000E5D1992341F2883206A93046069304F002
:104DA0001BFE0028DBD105231C9019906A46149342
:104DB0004FF08073219014A91D9341F288339FED29
:104DC0002A7BCDE91A90CDE91F008DED007B9FED88
:104DD000287B30468DED027B9FED277B8DED047B9C
:104DE00004F066FF0028BAD129462046FFF764FA8E
:104DF0000028B4D12046FFF7EBFA03460028AED1D5
:104E0000002FB0D1189330460027002606AA14A917
:104E1000CDF86890CDE91F33EB2314934FF4406332
:104E20001B934FF4005317934FF440431C93A0235C
:104E30001693062319934FF0805321934FF040733C
:104E4000CDE906671D9304F0ABFF034600288AD026
:104E5000434684F85C8086E701230322184684F8E1
:104E60005C2023B0BDE8F0830000000001000000DA
:104E700010000000010000000000000000004000E1
:104E80000CAE0024005000520068FFF7A1BD00BF27
:104E90002DE9F04F724E05680E40B2422DED048BA5
:104EA000A3B040F2A5804FF0000A4FF4800B91466A
:104EB0009FED679B9FED688BD72300244FF4807193
:104EC0004FF4806206934FF4005301270C9109932D
:104ED00026F070430E940D920F940B940793CDE936
:104EE0001074CDE9124401F0C9F8072846D06B7B55
:104EF000BB4207D0294628466F73FFF715FB0028F1
:104F000040F083802846FFF791F9044658B16B7B47
:104F1000002B38D10123184685F85C3023B0BDEC56
:104F2000048BBDE8F08F05F1100841F2883206A924
:104F3000404604F051FD0746002835D06B7B002B1E
:104F4000E8D0294628466C73FFF7EEFA18BB012219
:104F50006B7B85F85C20002BDCD00024294628469A
:104F60006C73FFF7E1FA0028D4D0022329462846C3
:104F70006C7385F85C30FFF7D7FACBE703226B7BC5
:104F800085F85C20E7E70024294628466C73FFF784
:104F9000CBFA0028DBD00223294628466C7385F81B
:104FA0005C30FFF7C1FAD2E74FF4807340466A469F
:104FB00014A91A930523199714934FF0807321971E
:104FC0001D9341F28833CDE91B77CDE91F778DED35
:104FD000009B8DED028BCDE904AB04F069FE044625
:104FE000E8B96B7B53B906F58056B1453FF664AF1F
:104FF000002023B0BDEC048BBDE8F08F6873294618
:105000002846FFF791FA0028EDD0022329462846CA
:105010006C7385F85C30FFF787FA6B7B9BE70122A6
:105020006B7B85F85C20002B3FF474AF2946284643
:105030006F73FFF779FA002889D0022329462846A2
:105040006F7385F85C30FFF76FFA80E7AFF300808D
:10505000000000000100000010000000010000003E
:1050600000F0FFFF2DE9F04F8FB0414B00240268A4
:1050700000AF9A427C63C7E90944C7E90B4403D0F7
:105080003C37BD46BDE8F08F3A4B40F609213A481F
:10509000EB46D3F8D42007F11C0607F1220A4FF0A3
:1050A000020942F480424FF00308C3F8D420D3F839
:1050B000D42002F48042BA60BA68D3F8E02042F00B
:1050C0004002C3F8E020D3F8E02002F04002FA608A
:1050D000FA68D3F8E02042F02002C3F8E020D3F8C9
:1050E000E02002F020023A613A69D3F8E02042F071
:1050F0001002C3F8E020D3F8E02002F010027A6139
:105100007A69D3F8E02042F00202C3F8E020D3F835
:10511000E030F86103F002033984BB61174B7B6018
:10512000BB697B6853F8040F7B6001F05FFA7B6812
:105130000546186801F062FA16F8013B786207F13B
:1051400024012846C7F830807B63C7E90A9402F03F
:1051500015FC5645E5D100225C20114601F092FB7A
:105160005C2001F0CDFB3C37DD46BD46BDE8F08F4D
:1051700000500052004402580A0A090968AE00248F
:10518000114B02689A4200D07047104A70B5D2F8AD
:10519000D4300F4C23F4804304F11806C2F8D43005
:1051A00054F8040F01F022FA0546206801F026FAAF
:1051B0000146284602F022FDB442F1D15C20BDE850
:1051C000704001F0ABBB00BF0050005200440258D9
:1051D00068AE0024014804F06FBE00BF1CAE00247E
:1051E000084B1A1D981D03F1080110B49C1C9A6607
:1051F00003F10A02C3E91834C3E91B015DF8044B4B
:105200005A6770470CAE002438B5036871B9026A5A
:1052100000F1280500F5AC74012A0CBF00214021E3
:105220008BBB1D4B5722C0F858310DE0426A00F18C
:10523000C00500F5E874012A0CBF00214021EBB144
:10524000164B5A22C0F8D03100232046C4E9012170
:105250004FF480524FF48061636262614FF4804288
:10526000C4E903314FF48073C4E906234FF40033DB
:10527000236201F0B9FC58B1FFBEFEE7084B58228B
:10528000C0F8D031E0E7074B5922C0F85831DBE7CE
:10529000C5E92044A56338BD1000024070000240FB
:1052A00028000240580002402DE9F043821D0546C7
:1052B0008BB0031D05F10A010830CDE9052305F186
:1052C0000C02AB69CDE907010992002B3DD0EB69D7
:1052D000B3FA83F84FEA58180123022205AE0AAF49
:1052E0004FF006090393CDE9012356F8044B2B79BF
:1052F0002278934216D02B68F3B1012B02D1F2B180
:105300000A230493204601F079F9034620460093CE
:1053100001F06CF9694602F031FBBE42E5D10BB0F9
:10532000BDE8F083697963789942E4D1B8F1000F60
:10533000F3D02B68002BE0D1CDF81090E2E7637832
:10534000022B14BF0A230823DBE74FF00108C3E751
:10535000534A0368934230B505468BB055D020328E
:10536000934252D04F4A934204D02032934201D00C
:105370000BB030BD4C4C4D48D4F8E03043F0010345
:10538000C4F8E030D4F8E03003F001030593059B46
:10539000D4F8E03043F00803C4F8E030D4F8E0304B
:1053A00003F008030693069BD4F8E03043F0400373
:1053B000C4F8E030D4F8E03003F040030793079BD3
:1053C000D4F8F03043F40003C4F8F030D4F8F030EF
:1053D00003F400030893089BFFF766FFD4F8D83066
:1053E000296843F001032F4A3048C4F8D830891A9D
:1053F000D4F8D83018BF012103F001030993099BA9
:105400000BB0BDE83040FFF7FFBE274C2848D4F86A
:10541000E03043F00103C4F8E030D4F8E03003F0AA
:1054200001030093009BD4F8E03043F01003C4F86C
:10543000E030D4F8E03003F010030193019BD4F87E
:10544000E03043F04003C4F8E030D4F8E03003F03B
:1054500040030293029BD4F8F03043F48003C4F875
:10546000F030D4F8F03003F480030393039BFFF78C
:105470001BFFD4F8D830296843F00103084A0C48D0
:10548000C4F8D830891AD4F8D83018BF012103F0F5
:1054900001030493049B0BB0BDE83040FFF7B4BE9A
:1054A00004580140045C014000440258E0B000246C
:1054B00084AE0024014801F00FBF00BFDCAF002420
:1054C000014801F009BF00BF54B00024014801F0B9
:1054D00003BF00BF38B20024014801F0FDBE00BF89
:1054E000B0B200241A4A0368934210B40BD02032A1
:1054F000934208D0174A934216D02032934213D0D9
:105500005DF8044B7047144B0022D3F85442C3F8A3
:105510005822002CF4D0D3F84802D3E99312234642
:105520005DF8044B520818470B4B0022D3F8B044E7
:10553000C3F8B424002CE3D0D3F8AC24D3F8A814D7
:10554000D3F8A404520823465DF8044B184700BF63
:1055500004580140045C014084AE0024184A0368EA
:10556000934210B40BD02032934208D0154A934294
:1055700017D02032934214D05DF8044B7047124B81
:10558000D3E994245208C3F85822002CF4D0D3E96C
:105590009201234601EB820100EB82005DF8044B8F
:1055A0001847094BD3F8AC24D3F8B0445208C3F8D9
:1055B000B424002CE0D0D3F8A814D3F8A404E8E76E
:1055C00004580140045C014084AE00240000000047
:1055D0002DE9F04F0C684FF41776754F87B004FB38
:1055E00006F6012C07EB060AC0F800A000F3A08025
:1055F0000D468E464FF00008D44669A3D3E9002338
:1056000069A1D1E90001CDE9022306ABCAF85082B5
:1056100003EB8403CDE9040153F810BC53F8083CB4
:10562000CAE992880193BEE80F00ACE80F00BEE81B
:105630000F00ACE80F00019B9EE80300CAF828B0F9
:10564000CAF8C0308CE803002B69042B0CD8DFE8C3
:1056500003F0737D879103004FF41773554A03FBE2
:1056600004739A64C3F8E020AA692B6A002A43D025
:10567000002B4FF4177308BF022203FB047318BFFB
:105680000322DA6201221A63EA696B6A002A40D1B6
:10569000191E4FF4177318BF012103FB0473C3E9EC
:1056A00031126B69022B05D8434A12F80380434A32
:1056B00052F823904FF4177306F1280042464946EA
:1056C00003FB04740023384463646363E365C4F834
:1056D000DC30C4F8CC30C4F8F430C4E90F33C4E98A
:1056E0001533C4E93533C4E93B33022306F086FCA5
:1056F000002849D0FFBEFEE7191E4FF4177318BFEC
:10570000012103FB0473C3E90B12EA696B6A002AE7
:10571000BED0002B4FF4177308BF022203FB0473A3
:1057200018BF0322C3F8C4200122C3F8C820B8E779
:10573000012007B0BDE8F08F4FF417734FF4FA5211
:1057400003FB04739A64C3F8E0208DE74FF41773EA
:105750004FF47A5203FB04739A64C3F8E02083E7A2
:105760004FF417734FF4FA4203FB04739A64C3F8BF
:10577000E02079E74FF417734BF6803203FB047394
:105780009A64C3F8E0206FE706F1C00002234246A6
:105790004946384406F032FC0028CAD0FFBEFEE776
:1057A00004580140045C014024580140245C01403D
:1057B00084AE002400770100C0530108C4530108DF
:1057C0000068704770B5046882B015460E46C4F88C
:1057D0005032C4E99212069AC4F85422A269012AEE
:1057E00026D0626A012A9AB211D0294604F1C0007B
:1057F000019206F0BFFC236A019A012B10D02946C2
:1058000004F1280006F0B6FC002002B070BD04F1DF
:10581000C000019206F040FD236A019A012BEED1EF
:10582000314604F1280006F037FD002002B070BDBB
:10583000226A012A9AB211D0294604F12800019265
:1058400006F098FC636A019A012B10D0294604F1F6
:10585000C00006F08FFC002002B070BD04F12800EB
:10586000019206F019FD636A019A012BEED13146CF
:1058700004F1C00006F010FD002002B070BD00BFB2
:1058800003681B69042B05D8044A02EB830393EDDC
:10589000000A70479FED020A704700BFD05301080D
:1058A00000803B470368D3F858027047714A036889
:1058B00011698B4200B587B04BD0916E8B4200F0DE
:1058C000B680D2F8C0108B4200F0B380D2F8181125
:1058D0008B4200F0B080B3F1804F1ED0664A9342F5
:1058E0000DD0664A934200F0A880654A934200F0CA
:1058F000B280644A93421ED007B05DF804FB624B4D
:10590000D3F8E82042F00202C3F8E820D3F8E830E8
:1059100003F002030293029BEEE75B4BD3F8E8200F
:1059200042F00102C3F8E820D3F8E83003F00103A5
:105930000193019BE0E7544BD3F8E82042F01002BA
:10594000C3F8E820D3F8E83003F010030593059B73
:10595000D2E700205821B3F1804F01FB0022127BD7
:105960001ED045498B4235D044498B4248D04449EA
:105970008B42BED1444BD3F8E81041F00801C3F884
:10598000E810D3F8E83003F008030493049B002ADE
:10599000B2D0322000220F2100F074FF322014E038
:1059A000394BD3F8E81041F00101C3F8E810D3F8FF
:1059B000E83003F001030193019B002A9CD01C20D6
:1059C00000220F2100F05EFF1C2007B05DF804EB01
:1059D00000F096BF2C4BD3F8E81041F00201C3F859
:1059E000E810D3F8E83003F002030293029B002A88
:1059F00082D01D2000220F2100F044FF1D20E4E78B
:105A0000214BD3F8E81041F00401C3F8E810D3F8B3
:105A1000E83003F004030393039B002A3FF46CAFC8
:105A20001E2000220F2100F02DFF1E20CDE70120B7
:105A300090E702208EE703208CE7134BD3F8E82091
:105A400042F00402C3F8E820D3F8E83003F004037E
:105A50000393039B50E70C4BD3F8E82042F0080275
:105A6000C3F8E820D3F8E83003F008030493049B5C
:105A700042E700BF3CB3002400040040000800409F
:105A8000000C004000100040004402580F4B026818
:105A900019698A420BD0996E8A4211D0D3F8C0108E
:105AA0008A420FD0D3F818118A420DD070470021D6
:105AB000582202FB01331A6D002AF7D0586D1047A7
:105AC0000121F5E70221F3E70321F1E73CB30024CC
:105AD000014806F0EDBE00BF4CB30024014806F0BB
