:020000040800F2
:1000000000000220010A0008FD0900082151000833
:10001000FD090008FD090008FD09000800000000B6
:10002000000000000000000000000000FD090008C2
:10003000FD09000800000000FD090008A5500008A7
:10004000FD090008FD090008FD090008FD09000878
:10005000FD090008FD090008FD090008FD09000868
:10006000FD090008FD090008FD09000821490008F4
:100070002D490008FD0900083949000845490008D4
:10008000B1F30008513E0008FD090008FD09000811
:10009000FD090008FD090008FD090008FD09000828
:1000A000FD090008FD090008FD090008FD09000818
:1000B000394F0008454F0008514F0008853E0008A1
:1000C000FD090008913E0008FD09000861E30008F1
:1000D0006DE30008E5F1000815F2000849F2000898
:1000E000FD090008FD09000800000000FD090008E6
:1000F000FD090008FD090008FD090008FD090008C8
:10010000FD090008FD0900085D4F000879E30008BB
:100110007DF20008B1F20008FD090008FD090008A1
:10012000FD090008FD0900089DE30008D1E300086F
:10013000E5F30008FD090008FD090008FD090008B5
:1001400000000000000000000000000000000000AF
:10015000FD090008FD090008FD090008E5F2000896
:100160009D3E0008FD090008B5500008D950000860
:10017000FD090008FD500008FD090008FD09000800
:10018000FD090008FD09000819F3000849F30008FB
:1001900085E3000891E30008FD090008FD09000857
:1001A000FD090008FD090008FD090008FD09000817
:1001B00041460008FD090008FD090008FD09000886
:1001C000FD090008FD0900081DDB000829DB000807
:1001D000FD09000835DB0008FD090008FD090008DD
:1001E000FD090008FD090008FD090008FD090008D7
:1001F000FD090008FD090008FD090008FD090008C7
:10020000FD090008FD090008FD090008FD090008B6
:10021000FD090008FD090008FD090008FD090008A6
:10022000FD090008FD090008FD09000800000000A4
:10023000FD090008FD09000800000000FD09000894
:10024000FD090008FD090008FD090008FD09000876
:10025000FD090008FD090008FD090008FD09000866
:10026000FD090008FD090008FD090008FD09000856
:10027000FD090008FD0900087DF3000800000000EA
:10028000FD090008FD090008FD0900080000000044
:0802900000000000FD09000858
:1002A00010B5054C237833B9044B13B10448AFF3B0
:1002B00000800123237010BDA00600240000000070
:1002C000504E010808B5034B1BB103490348AFF377
:1002D000008008BD00000000A4060024504E010864
:1002E00001F0FF01102A2BDB10F0070F08D010F8E7
:1002F000013B013A8B422DD010F0070F42B3F6D1EB
:10030000F0B441EA012141EA014122F007047FF003
:1003100000070023F0E80256083C85EA010586EA5A
:10032000010685FA47F5A3FA87F586FA47F6A5FA96
:1003300087F68EB9EED1F0BC01F0FF0102F00702A2
:1003400032B110F8013B013A83EA010313B1F8D14D
:100350000020704701387047002D06BF354603382E
:10036000073815F0010F07D1013015F4807F02BF67
:10037000013015F4C03F0130F0BC0138704700BFB8
:1003800081F0004102E000BF83F0004330B54FEA46
:1003900041044FEA430594EA050F08BF90EA020FB3
:1003A0001FBF54EA000C55EA020C7FEA645C7FEA46
:1003B000655C00F0E2804FEA5454D4EB5555B8BF69
:1003C0006D420CDD2C4480EA020281EA030382EADA
:1003D000000083EA010180EA020281EA0303362D6C
:1003E00088BF30BD11F0004F4FEA01314FF4801C3F
:1003F0004CEA113102D0404261EB410113F0004F51
:100400004FEA03334CEA133302D0524263EB430307
:1004100094EA050F00F0A780A4F10104D5F1200EA5
:100420000DDB02FA0EFC22FA05F2801841F1000100
:1004300003FA0EF2801843FA05F359410EE0A5F1D4
:1004400020050EF1200E012A03FA0EFC28BF4CF005
:10045000020C43FA05F3C01851EBE37101F00045BB
:1004600007D54FF0000EDCF1000C7EEB00006EEBC8
:100470000101B1F5801F1BD3B1F5001F0CD3490852
:100480005FEA30004FEA3C0C04F101044FEA4452A9
:1004900012F5800F80F09A80BCF1004F08BF5FEA30
:1004A000500C50F1000041EB045141EA050130BD10
:1004B0005FEA4C0C404141EB0101013C28BFB1F522
:1004C000801FE9D291F0000F04BF01460020B1FA6D
:1004D00081F308BF2033A3F10B03B3F120020CDA40
:1004E0000C3208DD02F1140CC2F10C0201FA0CF01E
:1004F00021FA02F10CE002F11402D8BFC2F1200C83
:1005000001FA02F120FA0CFCDCBF41EA0C01904038
:10051000E41AA2BF01EB0451294330BD6FEA040481
:100520001F3C1CDA0C340EDC04F11404C4F120026C
:1005300020FA04F001FA02F340EA030021FA04F37E
:1005400045EA030130BDC4F10C04C4F1200220FAD5
:1005500002F001FA04F340EA0300294630BD21FA13
:1005600004F0294630BD94F0000F83F4801306BFD9
:1005700081F480110134013D4EE77FEA645C18BFCD
:100580007FEA655C29D094EA050F08BF90EA020F64
:1005900005D054EA000C04BF1946104630BD91EA5C
:1005A000030F1EBF0021002030BD5FEA545C05D15F
:1005B0004000494128BF41F0004130BD14F580049E
:1005C0003CBF01F5801130BD01F0004545F0FE4112
:1005D00041F470014FF0000030BD7FEA645C1ABF47
:1005E000194610467FEA655C1CBF0B46024650EA7E
:1005F000013406BF52EA033591EA030F41F40021AA
:1006000030BD00BF90F0000F04BF0021704730B52F
:100610004FF4806404F132044FF000054FF0000104
:1006200050E700BF90F0000F04BF0021704730B5C5
:100630004FF4806404F1320410F0004548BF40429A
:100640004FF000013EE700BF42004FEAE2014FEAEF
:1006500031014FEA02701FBF12F07F4393F07F4FCA
:1006600081F06051704732F07F4208BF704793F0CD
:100670007F4F04BF41F40021704730B54FF46074E0
:1006800001F0004521F000411CE700BF50EA0102E3
:1006900008BF704730B54FF000050AE050EA01028C
:1006A00008BF704730B511F0004502D5404261EBFC
:1006B00041014FF4806404F132045FEA915C3FF43D
:1006C000D8AE4FF003025FEADC0C18BF03325FEADA
:1006D000DC0C18BF033202EBDC02C2F1200300FA8B
:1006E00003FC20FA02F001FA03FE40EA0E0021FAB0
:1006F00002F11444BDE600BF53B94AB9002908BF4E
:1007000000281CBF4FF0FF314FF0FF3000F074B9EC
:10071000ADF1080C6DE904CE00F006F8DDF804E058
:10072000DDE9022304B070472DE9F047089D044637
:100730008E46002B4DD18A42944669D9B2FA82F294
:1007400052B101FA02F3C2F1200120FA01F10CFAD0
:1007500002FC41EA030E94404FEA1C48210CBEFB08
:10076000F8F61FFA8CF708FB16E341EA034306FB91
:1007700007F199420AD91CEB030306F1FF3080F020
:100780001F81994240F21C81023E63445B1AA4B26D
:10079000B3FBF8F008FB103344EA034400FB07F70F
:1007A000A7420AD91CEB040400F1FF3380F00A8150
:1007B000A74240F207816444023840EA0640E41B45
:1007C00000261DB1D4400023C5E900433146BDE8F1
:1007D000F0878B4209D9002D00F0EF800026C5E993
:1007E000000130463146BDE8F087B3FA83F6002EAB
:1007F0004AD18B4202D3824200F2F980841A61EB23
:10080000030301209E46002DE0D0C5E9004EDDE740
:1008100002B9FFDEB2FA82F2002A40F09280A1EB28
:100820000C014FEA1C471FFA8CFE0126200CB1FB7D
:10083000F7F307FB131140EA01410EFB03F0884276
:1008400008D91CEB010103F1FF3802D2884200F203
:10085000CB804346091AA4B2B1FBF7F007FB101195
:1008600044EA01440EFB00FEA64508D91CEB040433
:1008700000F1FF3102D2A64500F2BB800846A4EB8E
:100880000E0440EA03409CE7C6F12007B34022FA79
:1008900007FC4CEA030C20FA07F401FA06F31C43A8
:1008A000F9404FEA1C4900FA06F3B1FBF9F8200CB5
:1008B0001FFA8CFE09FB181140EA014108FB0EF0FB
:1008C000884202FA06F20BD91CEB010108F1FF3A4B
:1008D00080F08880884240F28580A8F10208614457
:1008E000091AA4B2B1FBF9F009FB101144EA014165
:1008F00000FB0EFE8E4508D91CEB010100F1FF3410
:100900006CD28E456AD90238614440EA0840A0FBA7
:100910000294A1EB0E01A142C846A64656D353D07D
:100920005DB1B3EB080261EB0E0101FA07F722FAA1
:1009300006F3F1401F43C5E9007100263146BDE8CA
:10094000F087C2F12003D8400CFA02FC21FA03F32D
:10095000914001434FEA1C471FFA8CFEB3FBF7F0AE
:1009600007FB10360B0C43EA064300FB0EF69E42D3
:1009700004FA02F408D91CEB030300F1FF382FD26C
:100980009E422DD9023863449B1B89B2B3FBF7F614
:1009900007FB163341EA034106FB0EF38B4208D9ED
:1009A0001CEB010106F1FF3816D28B4214D9023E2E
:1009B0006144C91A46EA004638E72E46284605E74C
:1009C0000646E3E61846F8E64B45A9D2B9EB02081D
:1009D00064EB0C0E0138A3E74646EAE7204694E7AD
:1009E0004046D1E7D0467BE7023B614432E73046E0
:1009F00009E76444023842E7704700BFFEE700BFE2
:100A00000B480C4A904203D0121A0B4912F0CCFE4C
:100A10000A480B4A904203D0121A002112F0D2FE6B
:100A200004F0AAFD12F094FE00F03CFEFEE700BFC9
:100A300000000024A0060024844E0108A006002423
:100A400050090124704700BF704700BF704700BFC6
:100A5000704700BFAAB32DE9F041174682B00646A1
:100A60000C460025DFF8608007E0023523606360F4
:100A70000836AF4204F1080420D998F8001000238A
:100A80000129F2D101AA69460E48023501F0EEF9BA
:100A900096ED007ADDED007AAF42DDED016A06F1F8
:100AA000080637EE277A04F1080404ED027A56EDC1
:100AB000017A77EEA67A44ED017ADED802B0BDE87D
:100AC000F0817047C49700240400002403282DE916
:100AD000F84F08D0DFF8BC90B9F800100131A9F840
:100AE0000010BDE8F88F254CDFF8A8902368B9F80E
:100AF000001003F10052224D128892B28A422A80DD
:100B0000ECD1DFF894801F4F1F4E0BE001F08EFBFD
:100B10002368B9F8001003F10052128892B2914292
:100B20002A80DBD1981C194AD91CDFF870A02060FC
:100B30009A5C2160191D02F07F0C02F0800B5FFAB5
:100B400082FE1348A8F800B0A7F800C013F80A20E6
:100B5000216061461346D2B2FF2B338006D01EF0CF
:100B6000800FD3D10A4801F0CFFBD1E700224FF428
:100B70008033A9F800202360BDE8F88F0C00002422
:100B8000B8970024B6970024BA97002402000020EA
:100B9000C4970024B0970024B497002403000020D9
:100BA000054B188808B1FFF791BF04494FF4803214
:100BB000034B08801A607047B2970024B097002456
:100BC0000C00002410B500F2D44300F2546430331A
:100BD00000222D494FF0000CA34243F8302C43F87B
:100BE0002C2C43F8281C43F8242C43F8201C43F8F1
:100BF0001C1C43F8181C43F8142C43F8102C43F821
:100C00000C2C03F804CC03F803CCE0D100F2D4742C
:100C1000303300221C494FF0000CA34243F8302C23
:100C200043F82C2C43F8281C43F8242C43F8201CB0
:100C300043F81C1C43F8181C43F8142C43F8102CE0
:100C400043F80C2C03F804CC03F803CCE0D100F6F5
:100C50003424002203F1180C03F1280103F1080EDB
:100C6000C3E90222C3E904224C3343F8342CCCF804
:100C70000C20A342CCE9012243F8242CCA60C1E92C
:100C80000122E6D110BD00BF000080BF134B30B47D
:100C90001A68134C02F10055B4F800C0A5F800C062
:100CA000951C1D600F4D50551A680F4D501C186053
:100CB0000E4811541A68511CA94219600CD9218898
:100CC00011524FF6FF700A495052002209484FF462
:100CD000803122800280196030BC70470C000024F3
:100CE000B097002402000020F8FF07000100002058
:100CF00003000020B297002484B0F0B583B008ACA4
:100D000084E80F009DF820309DF828409DF82920A8
:100D1000062B11D8DFE813F01E0107001000280091
:100D2000100010001500D04B93F88930112B00F003
:100D30002A818B4200F0278103B0BDE8F04004B067
:100D40007047C94B93F88930112B01D08B42F3D1F6
:100D5000A4F50054C44804EBC21421B203B0BDE8AA
:100D6000F04004B001F0DEBA013C772CE4D801A3D6
:100D700053F824F09D0F0008C70F00086B120008FD
:100D80008312000889100008DF0F0008DF0F000839
:100D9000B1120008AB110008C3110008DB110008F4
:100DA000F31100080B120008231200083B12000880
:100DB000531200087B110008931100089D0F0008D2
:100DC000C70F0008FD1000081F110008411100089E
:100DD00059110008C9120008E1120008BF100008EC
:100DE000E1100008390D0008390D0008390D000820
:100DF000390D0008390D0008390D000809100008E8
:100E000017100008551000089B120008390D000843
:100E1000390D0008390D0008390D0008390D00089A
:100E2000390D0008390D0008390D0008390D00088A
:100E3000390D0008390D0008390D0008390D00087A
:100E4000390D0008390D0008390D0008390D00086A
:100E5000390D0008390D0008390D0008390D00085A
:100E6000390D0008390D0008390D0008390D00084A
:100E7000390D0008390D0008390D0008390D00083A
:100E8000390D0008390D0008390D0008390D00082A
:100E9000390D0008390D0008390D0008390D00081A
:100EA000390D0008390D0008390D0008390D00080A
:100EB000390D0008390D0008390D0008390D0008FA
:100EC000390D0008390D0008390D0008390D0008EA
:100ED000390D0008390D0008390D0008390D0008DA
:100EE000390D0008390D0008390D0008390D0008CA
:100EF000390D0008390D0008390D0008390D0008BA
:100F0000390D0008390D0008390D0008390D0008A9
:100F1000390D0008390D0008390D0008390D000899
:100F2000390D0008390D0008390D0008390D000889
:100F3000390D0008390D0008390D0008390D000879
:100F4000390D0008390D0008390D00083F10000860
:100F5000A9100008444B93F88930112B02D08B4222
:100F60007FF4EAAE414B1B88012B00F00282214640
:100F70003D4801F0C9F900213D4803B0BDE8F0400B
:100F800004B001F0A3BA394B1B88012B00F0E981B2
:100F90002146354801F04AF90121EDE707EE902A94
:100FA000DFED386A9FED337AB8EE676A2E48C6EEF9
:100FB000267A67EE877AC0ED207A03B0BDE8F0406C
:100FC00004B000F0D7BE07EE902A9FED2E7A264897
:100FD000F8EE676AC6EE877AC0ED1F7AEDE707EE96
:100FE000902A9FED287A2048F8EE676AC6EE877A45
:100FF000C0ED0D7A03B0BDE8F04004B000F056BE7D
:10100000194B062283F86820184901201A4B002248
:1010100008801A8090E6194B4FF6FF7E164A002191
:101020001868168800F10055154F104C2E8020F8D6
:1010300007E04FF480302180118018607CE653096E
:10104000013B032B00F25B81DFE813F08301870192
:101050007F0156010023054C07484FF48031074AB1
:1010600023800380116067E6C4970024B2970024B0
:10107000BC06002400A08C46B09700240C0000247D
:10108000020000200000FE4207EE902A5FED036A96
:10109000B7EE007AB94BB8EE676AC6EE267A77EEFD
:1010A000877AC3ED077A47E65309013B032B00F229
:1010B0002681DFE813F0370133012F012B0107EE02
:1010C000902A9FEDAF7AAD48F8EE676AC6EE877A50
:1010D000C0ED1C7A03B0BDE8F04004B000F0AABE39
:1010E0005209032A90D801A353F822F041130008B3
:1010F000371300082D1300080110000807EE902A8E
:101100009FED9F7A9D48F8EE676AC6EE877AC0ED3C
:10111000127A03B0BDE8F04004B000F03FBE07EE25
:10112000902A9FED977A9548F8EE676AC6EE877A1F
:10113000C0ED157A03B0BDE8F04004B000F04ABE3F
:1011400007EE902A9FED8F7A8C48F8EE676AC6EE1C
:10115000877AC0ED167AEDE707EE902A9FED887A40
:101160008648F8EE676AC6EE877AC0ED187A03B053
:10117000BDE8F04004B000F045BE07EE902A9FEDB8
:10118000807A7E4BF8EE676AC6EE877AC3ED1D7AE9
:10119000D2E507EE902A9FED7A7A784BF8EE676AEF
:1011A000C6EE877AC3ED1E7AC6E507EE902A9FED5C
:1011B000747A7248F8EE676AC6EE877AC0ED0F7AE5
:1011C00018E707EE902A9FED6E7A6C48F8EE676A92
:1011D000C6EE877AC0ED107A0CE707EE902A9FEDF5
:1011E000687A6648F8EE676AC6EE877AC0ED097AD3
:1011F00000E707EE902A9FED627A6048F8EE676A92
:10120000C6EE877AC0ED0A7AF4E607EE902A9FEDE3
:101210005C7A5A48F8EE676AC6EE877AC0ED0B7AB8
:10122000E8E607EE902A9FED567A5448F8EE676A92
:10123000C6EE877AC0ED0C7ADCE607EE902A9FEDC9
:10124000527A4E4BF8EE676AC6EE877AC3ED047A9F
:1012500072E507EE902A9FED4C7A484BF8EE676AEC
:10126000C6EE877AC3ED087A66E507EE902A9FED11
:10127000447A424BF8EE676AC6EE877AC3ED027A8B
:101280005AE507EE902A9FED407A3C4BF8EE676AEC
:10129000C6EE877AC3ED067A4EE53C4A00213C480B
:1012A00003243C4B11804FF4803204801A6043E5E4
:1012B00007EE902A9FED327A3048F8EE676AC6EE64
:1012C000877AC0ED0E7A95E607EE902A9FED2D7A8B
:1012D0002A48F8EE676AC6EE877AC0ED197A46E7C3
:1012E00007EE902A9FED267A2448F8EE676AC6EE4C
:1012F000877AC0ED1B7AEDE6204B02221A711F4857
:1013000003B0BDE8F04004B000F0BEBC1B4B0622A9
:101310001A75F4E7194B04221A75F0E7174B0222ED
:101320001A75ECE7154B01221A75E8E7134B0422F6
:1013300083F8682068E6114B022283F8682063E690
:101340000E4B012283F868205EE60C4B04221A71D2
:10135000D5E70A4B01221A71D1E7084B06221A7110
:10136000CDE7114644F080000192FFF78FFC019A0F
:101370000EE600212046FFF789FCF8E5C49700241B
:101380000000FE420080FF4300007F43B09700242E
:10139000B29700240C00002410B5032286B000246C
:1013A0004FF0FF310123029201948DF81430CDE902
:1013B000034104F095F8094B02A9A3FB0030C009D2
:1013C000049001A803F0D0FD2246054901A803F0CE
:1013D00045FE01A803F030FE06B010BD898888885C
:1013E000A10B00082DE9F04100F51044C8B00546F6
:1013F00094F8AC301942037918D0032B1CD000228A
:10140000027194F8B0300B40C36094F8AD300B40DB
:101410001B09092B037206D80120072B287184F8B9
:10142000A43000F0E88048B0BDE8F081032BFAD882
:10143000DFE803F08D115802F72900F0C38095F919
:10144000922095F89230002AEDDBEA18013391746E
:1014500085F89230E7E794F8AE8001EA080885F84D
:10146000108094F8A4703B1F012B06D995F8933097
:1014700003F0FD03012B40F0BB8000236E46902259
:1014800005F1080130462B7112F08EF9D4F898302E
:10149000D4F89C20013B9B1ADBB2002BF6D09022A3
:1014A00031460DEB020012F07FF9D4F89C6024A9BC
:1014B000902206EBC600013605EB0010F6B298301C
:1014C00012F072F9C4F89C60B8F1770FABD9032F12
:1014D000A9D10923A8F178012B7284F8A43085F8EA
:1014E0009510A0E794F8AE301940697494F8A430D0
:1014F000012B02D1002900F08C806E46902205F16C
:101500000801304612F050F9D4F89830D4F89C20F5
:10151000013B9B1ADBB2002BF6D0902231460DEB3B
:10152000020012F041F9D4F89C6024A9902206EB45
:10153000C600013605EB0010F6B2983012F034F90F
:101540000023C4F89C602B7148B0BDE8F08194F88A
:10155000A4302B72043B94F8AE20012B01EA020167
:10156000297405D995F8933003F0FD03012B3CD184
:1015700000236E46902205F1080130462B7112F0CF
:1015800013F9D4F89830D4F89C20013B9B1ADBB2B5
:10159000002BF6D0902231460DEB020012F004F938
:1015A000D4F89C6024A9902206EBC600013605EB16
:1015B0000010F6B2983012F0F7F8C4F89C6048B00A
:1015C000BDE8F08100236E46902205F10801304607
:1015D0002B7112F0E9F8D4F89830D4F89C20013B34
:1015E0009B1ADBB2002BF6D0D4E702232B711AE74B
:1015F00002232B7168E711F00800EA6036D101F090
:10160000070385F893303BB9032285F892302A719D
:1016100009E700232B7270E74B077FF504AF6E4696
:101620002871902205F10801304612F0BDF8D4F877
:101630009830D4F89C20013B9B1ADBB2002BF6D0EB
:10164000902231460DEB020012F0AEF8D4F89C6007
:1016500024A9902206EBC60005EB0010983012F08A
:10166000A3F8731CDBB2C4F89C30DCE608236E469A
:101670002B72304684F8A43094F8B2302A7190224C
:10168000194085F8941005F1080112F08DF8D4F88E
:101690009830D4F89C20013B9B1ADBB2002BF6D08B
:1016A000CEE700BF2DE9F0430121C9B06248002513
:1016B00000F078FF062160484FF00A0900F0E6FECE
:1016C000DFF898815C4800F0DDFE5B4888ED000A99
:1016D00000F0F8FE0523594A0121594F8DF880305A
:1016E0008DF8823007F510448DF884308DF88630FF
:1016F0008DF88830082382ED000A06228DF88130AB
:1017000009238DF88C1020A98DF8833007234A48CF
:101710008DF885308DF887208DF88A208DF88B2004
:101720008DF88D508DF8899002F006FE454800F046
:10173000D9F8444800F098FE434E294604F1A80029
:1017400084F8A55002F0C6F86420C4F89C50C4F890
:10175000985087F808903D7103F054FD29463B4AA4
:10176000304612F02FF8D8ED007A9FED397A4BF61B
:101770007F3346F8085C67EE877ABDEEE77A17EEAE
:10178000102AF8EEC76A9A4277EEE67A28BF1A4620
:1017900046ED037A46F8042C24AEFFF7FDFD2D49F3
:1017A000254800F06BFE03F02BFD054607E0C4F86A
:1017B000A05002F0C5F801462148FFF713FE264865
:1017C00002F0B4F803462448002BF0D1224802F07E
:1017D000CBF8034640B3D4F89C30D4F898209B1A39
:1017E000DBB2002BDFD0D4F89C30D4F898209B1AC1
:1017F000DBB2002BF7D0D4F898509022304605EB9E
:10180000C501013507EB0111EDB2983111F0CCFFA4
:1018100028A980226846C4F8985011F0C5FF96E8C0
:101820000F00FFF769FAD6E70B483B7102F0A0F80A
:10183000094802F077F8CEE7BC060024BC970024E4
:10184000FC060024C49700240C0000C000EE020037
:101850000AD7233C550A0008A4970024C097002407
:1018600038B516480024164A1649046044610462DB
:1018700011F036FB1448154D4FF60F0100F51043DB
:1018800004600F4AC3F8A8400724A3F8B01083F8F7
:10189000B2400F4CC3F8AC500E4911F021FB20466A
:1018A000FFF790F9064A0C49204611F019FB044A4B
:1018B0000A490B48BDE8384011F012BBBC060024B1
:1018C00000000024450A0008FC06002480707FF018
:1018D000C49700244D0A0008490A0008510A00086C
:1018E000000000C02DE9F04F054600F58A7400F2B3
:1018F000D47800F525792DED088B83B048E0F4EE1F
:10190000487AF1EE10FA78FE277A04F5A866C4ED5D
:10191000F07A012195ED000A304610F0C3FD95EDF7
:101920000D0A0121304610F02FFE95ED0E0A02211E
:10193000304610F029FE95ED100A0421304610F0D3
:1019400023FED5ED0F7AF5EEC07AF1EE10FA40F2F3
:10195000C380B7EE007AF4EE477AF1EE10FA77FE24
:10196000277AC6ED007A404695ED000A303410F033
:10197000EBFE404695ED200A11F05AF8404695EDF1
:101980001F0A08F14C0811F0A9F84C4500F0A78097
:10199000B7EE008AD5ED007AB6EE009A9FEDB4AAB4
:1019A0009FEDB4BA012788EE277ADFF8D8B2C4EDEC
:1019B000057A204684ED02AA04F5C07A84ED019AE6
:1019C00004F5707684ED039AB0EE4A0AC4F810B0BC
:1019D00084ED07BADFEDA8AADFEDA89AC9FE0B8A4D
:1019E000C8FEC88A84ED067A11F06EFA84F82D706C
:1019F00084ED080A204684F82C70B0EE6A0A2B7930
:101A000084ED018A082BC4ED02AA28BF00232370AD
:101A100011F05AFA68EEA99A84ED080A5046C4ED0E
:101A2000038AB0EE4A0AC4ED049AD5ED007A84ED3B
:101A300062AA88EE277AC4ED657A84ED619A84ED16
:101A4000639AC4F890B184ED67BACDF804A084ED30
:101A5000667A11F039FA84F8AD7184F8AC7184EDCE
:101A6000680A2B7D84ED618A082B019828BF00232A
:101A700084F8803195ED060A20EE2A0A84ED620A88
:101A800011F022FA3946304684ED680AC4ED638AC3
:101A9000C4ED649A95ED000A019610F003FD95EDF2
:101AA000090A3946019810F06FFD95ED0A0A0221E6
:101AB000019810F069FD95ED0C0A0421019810F0D1
:101AC00063FDD5ED0B7AF4EECB7AF1EE10FA3FF62A
:101AD00016AFDFED6B7A18E7DFED697A41E7F7EED5
:101AE000008AD5ED007A05F214444FF07C569FED44
:101AF000608A4FF0000888EEA77ADFF88891C4ED7D
:101B0000057A204684ED028A40F201176660E6609D
:101B1000C4F81090B0EE480AC4F81C8084ED067A30
:101B200011F0D2F984ED080A95F84430204695ED7D
:101B3000120A082BA5F8407428BF002385F8143436
:101B400084ED020A11F0C0F984ED080AEB6CB0EEE6
:101B5000480A636005F24444D5ED007A204684EDDE
:101B6000028A88EEA77AC4ED057A6660E660C4F85A
:101B70001090C4F81C8084ED067A11F0A5F984ED6C
:101B8000080A95F85030204695ED150A082BA5F85F
:101B9000707428BF002385F8443484ED020A11F0E4
:101BA00093F984ED080AAB6DB0EE480A636005F264
:101BB0007444D5ED007A204684ED028A88EEA77A37
:101BC000C4ED057A6660E660C4F81090C4F81C8025
:101BD00084ED067A11F078F984ED080A95F85C3006
:101BE000204695ED180A082BA5F8A07428BF0023FD
:101BF00085F8743484ED020A11F066F984ED080A60
:101C00006B6EB0EE480A636005F2A444D5ED007A2D
:101C10002046C4F8109088EEA77AC4ED057A84EDCA
:101C2000028A6660E660C4F81C8084ED067A11F0D2
:101C30004BF984ED080A95F86830204695ED1B0AAB
:101C4000082BA5F8D07428BF002385F8A43484EDB0
:101C5000020A11F039F9002384ED080A2A6F626044
:101C600085F88A3003B0BDEC088BBDE8F08F00BF6B
:101C70000000C842000000000000DC43DB0FC94048
:101C80000AD723BCDB0F4940027900F5C071037D00
:101C9000072A88BF0022072B88BF002380F8142161
:101CA000303080F864328142F8D1704770B5044614
:101CB00082B000F2D44500F254662EE0F4EE477A8A
:101CC000F1EE10FA77FE277AC5ED607A28460121F9
:101CD00094ED090A10F058FC284694ED0A0A0221F6
:101CE00010F052FC284694ED0C0A042110F04CFC34
:101CF000D4ED0B7AB7EE007AF5EEC07AF1EE10FA79
:101D00002BD9F4EE477A2B463035F1EE10FA77FEF8
:101D1000277AB542C3ED007A27D005F5C07094ED5F
:101D20000D0A0121019010F02FFC94ED0E0A022102
:101D3000019810F029FC94ED100A0198042110F08C
:101D400023FCD4ED0F7AB7EE007AF5EEC07AF1EE0F
:101D500010FAB3D8DFED067AB6E72B463035DFED63
:101D6000047AB542C3ED007AD7D102B070BD00BF8E
:101D70000AD723BC70B5054600F2D47400F63426A9
:101D8000204695ED200A10F053FE20464C3495ED88
:101D90001F0A10F0A3FEB442F2D170BD38B5F2EEC6
:101DA000007A90F8443090ED120A00F21445082BA6
:101DB000044620EE270A284628BF002384F814345E
:101DC00085ED020A11F080F885ED080AE36C6B607E
:101DD00038BD00BF38B590F8503000F2444590ED62
:101DE000150A0446082B284628BF002384F84434EB
:101DF00085ED020A11F068F885ED080AA36D6B60A5
:101E000038BD00BF38B590F85C3000F2744590EDF5
:101E1000180A0446082B284628BF002384F8743487
:101E200085ED020A11F050F885ED080A636E6B60CB
:101E300038BD00BF38B5F2EE007A90F8683090ED0A
:101E40001B0A00F2A445082B044620EE270A284668
:101E500028BF002384F8A43485ED020A11F034F879
:101E600085ED080A236F6B6038BD00BF2DE9F04F88
:101E7000044600F214402DED0A8B85B0DFEDE48AB4
:101E800004F18B0704F2D47604F1940A04F58A7500
:101E9000CDE9021210F036FE04F24440F0EE40AA02
:101EA00010F030FE04F27440B0EE40AA10F02AFEAA
:101EB00004F2A440F0EE409A10F024FE04F19303E3
:101EC000B0EE409A019328E0DAED0F7A3046D4ED77
:101ED000216A20EE270A94ED207AD4ED1D5A79EE7E
:101EE0000B7A9AED076A20EE260AA5EEC6BA20EE16
:101EF000070A20EE270A20EE0B0A10F099FD304663
:101F0000B0EE480A10F094FC019B78EE808A4C36C3
:101F10009F4205F1300500F03F8117F8013B002B8F
:101F200014BF4FF001084FF000080DD007EE903AB3
:101F30009FEDB86AB7EE007AF8EE677AC7EE866A68
:101F400077EE667ACAED087AD4ED1E7AF5EE407A1D
:101F5000F1EE10FA40F0B18005F5A86905F5707B47
:101F60004146584610F098FB94F88830F7EE007A16
:101F70002846012BA84BB7EE00BA88BF9AED107A1D
:101F800079EE277A88BF20EE070A27EE800A85EDD2
:101F9000010A85ED610ADAED187A9AED000A93EDEF
:101FA000008A67EEAACA94ED037A9C4B27EE888AD2
:101FB00030EE070AD4ED06BA93ED00CA67EEABBA6D
:101FC00027EE8CCA30EE080A30EE0C0A30EE2C0AEE
:101FD00085ED020A10F078FF85ED080AD4ED077A46
:101FE00005F5C073BAEC017A27EE880A18469B46BD
:101FF000A7EE270AA7EE8C0AA7EEAC0AA7EEAB0A5B
:1020000085ED620A10F060FF85ED680A94ED047AB0
:102010002846DFED836A3AEE077A9FED7D6A37EE58
:10202000297A87FE067A87FE4B7A67EE267A85ED57
:10203000037AC5ED047AD4ED087A7AEE277A77EE42
:10204000A97AC7FE867AC7FECB7A67EEA66AC5ED87
:10205000637AC5ED646A10F055FD5846F0EE40BA5B
:1020600010F050FD94ED027A414648467BEE477AE7
:1020700027EE808AA7EE2B8A10F00EFB94F88830AA
:1020800003F0FD03012B3FF41FAFD4ED217A30465E
:1020900094ED207A60EE277A94ED1D6ADAED076AF6
:1020A00039EE0B0A67EE877AA6EE66BA27EE800A4B
:1020B00020EE0B0A10F0BCFC21E7B7EE008A9AED87
:1020C000087AD4ED0D6A05F5A869012105F5707B44
:1020D00038EE477A4846B0EE480AA7EEC70A20EE27
:1020E000260A10F051FADAED087AB0EE480AD4ED7B
:1020F0001E6A78EE677A94ED0E7A48460221A6EEC3
:10210000E70A20EE070A10F03FFADAED087AB0EE9F
:10211000480AD4ED1E6A78EE677A94ED107A484644
:102120000421A6EEE70A20EE070A10F02DFADAEDF8
:10213000087AB0EE480AD4ED1E6A78EE677A94ED1C
:10214000097A58460121A6EEE70A20EE070A10F0A8
:102150001BFADAED087AB0EE480AD4ED1E6A78EE82
:10216000677A94ED0A7A58460221A6EEE70A20EE35
:10217000070A10F009FADAED087A94ED1E7A0421C4
:1021800078EE677A94ED0C0A5846A7EE678A28EE37
:10219000000A10F0F9F9E3E6224B4BF680362249AB
:1021A0004BF67F30F4EE007AD3ED006AD3E90142BA
:1021B00068EEA78A2244204403EB8404A1FB02C7F3
:1021C000551CBF0A06FB172203EB8202D2ED037AED
:1021D000A1FB0572A1FB0071920A890A06FB125548
:1021E00006FB1101596003EB850393ED037A029B13
:1021F00037EE677AC4ED038AC3ED008A039BE7EEEE
:10220000267AC3ED007A05B0BDEC0A8BBDE8F08FED
:10221000000000000000A84208000024F806002486
:10222000DB0FC940000000C0F119760570B54FF012
:10223000080C04462DED048B82B090F88A30019290
:1022400001330CF1FF3203F0070560192B4690F8BB
:102250008B6046B112F0FF0CF2D184F88A5002B0C4
:10226000BDEC048B70BD07EE901ADFED249AB2EE40
:10227000089A84F88A50F8EE670A80F88B10B0EE5E
:10228000000ADFED1F8A04EB850570EEE90AC0EE57
:10229000890A10F09DFEF0EE407AB0EE000A67EE7B
:1022A000A87AC5ED257A94F88A30E11804EB830208
:1022B00091F88B3092ED258A013300EE903AF8EEDA
:1022C000E00A70EEE90AC0EE890A10F081FEDDED49
:1022D000017ADFED0C6A94F88A30F8EE677A04EB45
:1022E0008304A0EE688A87EEA67A84ED3D8A84EDA9
:1022F000357A02B0BDEC048B70BD00BF00008A428D
:102300000000DC430000FE4200F18B03933013F821
:10231000012B8A4202D1002203F8012C8342F6D11C
:10232000704700BF07EE101AF0EE006AF7EE007A71
:10233000034BBAEEE97AE7EE667AC3ED007A7047AE
:102340000800002410B50022464C227091F800C00D
:1023500080F804C0D1F804C0C0F808C0D1F808C0A3
:10236000C0F80CC0D1F80CC0C0F810C091F810C073
:1023700080F814C0D1F814C0C0F818C0D1F818C043
:10238000C0F81CC0D1F81CC0C0F820C0D1F820C0D3
:10239000C0F824C0D1F824C0C0F828C0D1F828C0A3
:1023A000C0F82CC0D1F82CC0C0F830C0D1F830C073
:1023B000C0F834C0D1F834C0C0F838C0D1F838C043
:1023C000C0F83CC0D1F83CC0C0F840C091F840C053
:1023D00080F844C0D1F844C0C0F848C0D1F848C023
:1023E000C0F84CC091F84CC080F850C0D1F850C033
:1023F000C0F854C0D1F854C0C0F858C091F858C0C3
:1024000080F85CC0D1F85CC0C0F860C0D1F860C092
:10241000C0F864C091F864C080F868C0D1F868C0A2
:10242000C0F86CC0D1F86CC0C0F870C0D1F878C0EA
:10243000C0F87CC0D1F87CC0C0F880C0D1F880C0A2
:10244000C0F884C091F884C080F888C091F88510E5
:1024500080F88A2080F88910FFF744FA012323705E
:1024600010BD00BF04000024024B03491B68036039
:10247000FFF768BFC097002410000024143001F05B
:10248000B1B900BF143001F0A9B900BF38B500F1EF
:10249000140504462DED028B284601F091F92846DB
:1024A00001F09CF92846B0EE408A01F085F9D0EDA4
:1024B000007AF8EE677A88EE277ABDEC028B84ED1D
:1024C0000E7A38BD90ED0E0A704700BF253001F03E
:1024D0006BBB00BFF0B5032399B000270125129311
:1024E00006462C4B09A81595CDE90E7340F204530E
:1024F000ADF84030284BCDE91357099301F06AFA43
:1025000009A801F043FB002836D1244B04AF044650
:102510000090CDF842301023394604958DF82030D4
:102520001F4BCDE91650CDE906506846059301F0E2
:10253000BBFC0823009A01A909A8ADF804508DF846
:10254000064009940295039300F0E4F800230EA9D5
:1025500038463024049302F06FFA03224FF07E5382
:1025600009A906F114000B930C93CDE90942049AD2
:1025700001F0EAF819B0F0BD40F60132074B1697AA
:1025800004AFADF824200998CDF84230179500F03B
:1025900081F8DBE7040204040303000104060403DA
:1025A0000704010B2DE9F04304462DED028B83B0A7
:1025B000002948D0012140F2011200230091ADF81A
:1025C00004208DF80630304A0126304B271D304953
:1025D00004F12908626040F20272A36040F60663CB
:1025E000E16004F125092682A4F8252084F82760FB
:1025F000A4F8293084F82B6002F074FF6946054680
:1026000048B304F130008DF8066002F0C7FE072DD4
:1026100034D104F114052046FFF75CFF284601F091
:10262000DDF82846B0EE408A01F0C6F8D0ED007A19
:10263000F8EE677A88EE277A84ED0E7A03B0BDEC67
:10264000028BBDE8F08340F2011300918DF8061073
:10265000ADF80430B7E704F1300002F09FFE3946D0
:10266000204601F069FE484601F0B4F9404601F009
:10267000B1F904F1120000F077F9CAE739462046B3
:1026800001F05AFEC5E700BF050805090507050664
:10269000050A060610B584B003460124ADF804000F
:1026A00003A8ADF80C30ADF80E4001F093F92146C7
:1026B00003A801F079FA204602F0A4FD002103A846
:1026C00001F072FA204602F09DFD214603A801F0B8
:1026D0006BFA04B010BD00BF10B5C2F3002384B084
:1026E0000C46017C8DF80D2043EA4402FA240223B3
:1026F0008DF80C2003AA009401F06CFC18B10124A1
:10270000204604B010BD04460A2002F07BFD20469E
:1027100004B010BD034670B543F8042B044684B0E2
:1027200007C983E80700A37983B91A210B461E2243
:10273000FA2523742046ADF80C20022303AA009545
:1027400001F048FC28B1012004B070BD1B210B46EC
:10275000EDE70A2002F056FD4FF4B852009502232F
:10276000ADF80C20204603AA217C01F033FC0028A0
:10277000E9D10A2002F046FD41F2027200950223DF
:10278000ADF80C20204603AA217C01F023FC002890
:10279000D9D10A2002F036FD042200950223ADF8BB
:1027A0000C20204603AA217C01F014FC0028CAD189
:1027B0000A2002F027FD062200950223ADF80C2026
:1027C000204603AA217C01F005FC0028BBD10A2089
:1027D00002F018FD41F2082200950223ADF80C200A
:1027E000204603AA217C01F0F5FB0028ABD10A208A
:1027F000064602F007FD0095022303AA217C20462D
:10280000ADF80C6001F0E6FB00289CD1304602F0E8
:10281000F9FC009522790C232046002A8DF80C3013
:1028200003AA4FF0020314BF622142218DF80D105C
:10283000217C01F0CFFB002885D1304602F0E2FC7C
:102840002279D4E902310B43DBB20AB943F04003E9
:1028500062790AB143F020030E22FA258DF80D307B
:102860002046009502238DF80C2003AA217C01F05C
:10287000B1FB00287FF467AF0A2002F0C3FC1022EE
:1028800000950223ADF80C20204603AA217C01F01C
:10289000A1FB00287FF457AF0A2002F0B3FC1221FD
:1028A00000950223ADF80C1003AA217C204601F00C
:1028B00091FB00287FF447AF0A2002F0A3FC01221D
:1028C00009212046FFF708FF003818BF01203BE729
:1028D000F0B5102387B0234C0122002501260027E4
:1028E00002A920460195CDE902234FF48052CDE99B
:1028F000046709F043F8642003F0CEF902A94FF40D
:1029000080522046CDE9046702261027CDE90267F0
:1029100009F034F80322102302A92046CDE902234E
:1029200000230422CDE904234FF4805209F026F855
:1029300040F23223042202A9019310232046CDE95C
:102940000223019A012305924FF48052049309F067
:1029500015F840F60601204609F030F8284607B081
:10296000F0BD00BF00A200241C4B00221C494FF008
:10297000400C30B5054689B00220596007219A60A5
:102980001A620124DA620A224FF4006EDC600692B9
:102990002022CDE9000104200821CDE90201032015
:1029A0001021CDE9040108206946C3E904024FF46F
:1029B000C072181DC3E906C24FF48052C3E909E290
:1029C00008F0B2FF38B92846FFF782FF003818BF79
:1029D000012009B030BD204609B030BDFCA1002463
:1029E00040410052614A0021D0B513688EB00A916F
:1029F000002B40F0B9805E4B01214FF683700C2410
:102A000011600221D3F8D4200026032742F480521B
:102A1000C3F8D420D3F8D42002F480520092009A54
:102A2000D3F8E02042F01002C3F8E020D3F8E02011
:102A300002F010020192019AD3F8E02042F0400225
:102A4000C3F8E020D3F8E02002F040020292029A9C
:102A5000D3F8E02042F00802C3F8E020D3F8E020E9
:102A600002F008020392039AD3F8E02042F4807245
:102A7000C3F8E020D3F8E02002F480720492049AB4
:102A8000D3F8E02042F08002C3F8E020D3F8E02041
:102A900002F080020592059AD3F8E02042F020026D
:102AA000C3F8E020D3F8E02002F020020692069A54
:102AB000D3F8E02042F00402C3F8E020D3F8E0307D
:102AC0000C9403F0040307930323079A0B93CDE9B7
:102AD000080108A9274804F085F948F237120223B3
:102AE00008A925480C94CDE90823CDE90A6704F02C
:102AF00079F94CF20372022308A920480C94CDE91D
:102B00000823CDE90A6704F06DF940F2FF62022361
:102B100008A91B480C94CDE90823CDE90A6704F005
:102B200061F94FF60C72022308A916480C94CDE9FE
:102B30000823CDE90A6704F055F94FF63F02022356
:102B400008A911480C94CDE90823CDE90A6704F0DF
:102B500049F92022022308A90A480C94CDE90A6702
:102B6000CDE9082304F03EF90EB0D0BDF8A1002451
:102B7000004402580010025800180258000C025875
:102B800000200258001C0258001402582DE9F04F92
:102B9000DFF8108406460D46144608F118002DEDA6
:102BA000028B89B000AF02F03FF8D8F8183073B349
:102BB000D8F81C30D8F80490002B43690BBF4FF0B5
:102BC000080A4FF0100A4FF0020B4FF0040BB9F156
:102BD000000F2AD0A200EA46012B02F1070222F0E0
:102BE0000702ADEB020D6846ADEB020D694600F041
:102BF0003F81022B00F0D680002B6FD02246C847C1
:102C0000D5462437BD46BDEC028BBDE8F08FD8F821
:102C10001C30002BF5D0D8F804904FF0080A4FF084
:102C2000020B4369B9F1000FD4D1FB61D8F8003031
:102C3000BB61002BE5D0D54802F068F86B46BBF1CC
:102C4000020F786108EE103AFB6900F083816A4652
:102C50005146A2EBC40295466200EA46B2FBFBF283
:102C6000AAEBC40085460AEB8200EE46F861ADEBA4
:102C7000010DF8690EEB820CC7F810C0EC46ADEB05
:102C8000010D00EB8201CCF80400CCF8081001EB38
:102C900082013869E946CCF80C1000EB8201CCF8CF
:102CA00000A001EB8202C9E900E0C9E90212012B90
:102CB00000F06483022B00F06C82002B00F0808116
:102CC000620849466046BB69984718EE103A2437B7
:102CD0009D46BD46BDEC028BBDE8F08F002C8DD02B
:102CE0001A46D8ED0C6A9FEDB27A8446331D36F948
:102CF00022E00CF1080C07EE90EA33F922E00232F0
:102D0000F8EEE77A944267EE877A67EEA67A4CEDA2
:102D1000027A07EE90EAF8EEE77A67EE877A67EED6
:102D2000A67A4CED017AE2D8F9612246C847984E5E
:102D3000D8ED0D6A0020F9692B1D9FED9E7A9FED5D
:102D40009E6ADFED9E5A22E0F4EEC67AF1EE10FAAA
:102D5000C0F2C88447F6FE72D1ED017A45F8202012
:102D600066EEA77AF4EEC77AF1EE10FA40F2F08040
:102D7000F4EEC67AF1EE10FAC0F2D58447F6FE7290
:102D800043F820200230083184427FF639AFD1ED7C
:102D9000007A66EEA77AF4EEC77AF1EE10FAD3D88D
:102DA0003246D9E7002C3FF429AFD8ED0C6A8446AF
:102DB0009FED787A0022331D8E4656F822100CF1D2
:102DC000080C07EE901A53F822100232F8EEE77A58
:102DD000944267EE877A67EEA67A4CED027A07EEA8
:102DE000901AF8EEE77A67EE877A67EEA67A4CEDEE
:102DF000017AE2D871462246C7F81CE0C847664E01
:102E0000D8ED0D6A0020F9692B1D9FED6A7A9FEDC0
:102E10006A6ADFF894C120E0F4EEC67AF1EE10FAA7
:102E2000C0F279843246D1ED017A45F8202066EE71
:102E3000A77AF4EEC77AF1EE10FA40F28780F4EE4A
:102E4000C67AF1EE10FAC0F25E84324643F82020D2
:102E50000230083184427FF6D3AED1ED007A66EEBF
:102E6000A77AF4EEC77AF1EE10FAD5D86246DAE71F
:102E7000002C3FF4C3AED8ED0C6A86469FED477A2E
:102E80004FF0000C331D56F82C200EF1080E82F482
:102E90000002A2F5000207EE902A53F82C200CF154
:102EA000020CF8EEE77A82F400026445A2F5000213
:102EB00067EE877A67EEA67A4EED027A07EE902AE1
:102EC000F8EEE77A67EE877A67EEA67A4EED017A3A
:102ED000D9D8F9612246C847314ED8ED0D6A002095
:102EE000F9692B1D9FED337A9FED336ADFF8BCC083
:102EF0001FE0F4EEC67AF1EE10FAC0F2FC8332461F
:102F0000D1ED017A45F8202066EEA77AF4EEC77A73
:102F1000F1EE10FA18D9F4EEC67AF1EE10FAC0F21A
:102F2000DA83324643F820200230083184427FF6AB
:102F300067AED1ED007A66EEA77AF4EEC77AF1EECD
:102F400010FAD6D86246DBE76246EBE762467DE7D9
:102F5000324615E7A100D6466208073121F0070185
:102F6000ADEB010DEA46ADEB010D6946ADEB0E0D83
:102F70000AEB8200EC46ADEB0E0D01EB8202F8612C
:102F8000E946CCE900A0C9E9001290E650A200246D
:102F90000280FFFF000000300082FF7F000000344D
:102FA00082FF7F0034A20024007E00807E0080FF2C
:102FB0000000003804FF7FBF04FF7F3F00FEFF4694
:102FC000002C00F0C982BBF1020FD8F8242000F0D9
:102FD000FA827969C7F8049002EB810E5FED0C5A12
:102FE0008A00DCF808100EF104007A611A46DCF859
:102FF0000C303B61331DD7F810903D61FD69C7E986
:1030000002CB8C46834636F92210D8ED0C7A06EEB8
:10301000101A33F9221006EE901A3EF92210B8EE7B
:10302000C66A07EE101AF8EEE66A3BF92210B8EE0F
:10303000C77A26EE256A66EEA56A27EE257A26EE81
:10304000276A66EEA76A27EE277A07EE901A5108DC
:103050000232F8EEE77A0AEB8100944280ED006AD2
:1030600005EB810067EEA57AC0ED006A0CEB8100EC
:1030700009EB810180ED007A98ED0C7A67EE877A92
:10308000C1ED007ABFD8D7F804903D69D7E902CBEB
:1030900060466208BB6949469847D8F82C307A697F
:1030A000D8ED0D6A1A441FED3D7A1FED3D6A2B1DC8
:1030B000904602F1040A5FED3F5A0022A84ED9E97A
:1030C00000EC51E0F4EEC67AF1EE10FAC0F2C782DD
:1030D00047F6FE7045F822000CEB0100D0ED007AB7
:1030E00066EEA77AF4EEC77AF1EE10FA4BD9F4EE59
:1030F000C67AF1EE10FAC0F2BA8247F6FE70BBF162
:10310000020F43F822002BD0D9F808000844D0ED74
:10311000007A66EEA77AF4EEC77AF1EE10FA36D9A5
:10312000F4EEC67AF1EE10FAC0F2CD8247F6FE70E8
:1031300048F82200D9F80C000144D1ED007A66EE7F
:10314000A77AF4EEC77AF1EE10FA1ED9F4EEC67A39
:10315000F1EE10FAC0F2AF8247F6FE714AF8221083
:10316000023294427FF6B1AD51080EEB8100890026
:10317000D0ED007A66EEA77AF4EEC77AF1EE10FA97
:10318000A0D83046A6E73046B9E73146E6E73046F4
:10319000CEE7002C00F0E081BBF1020FD8F824301C
:1031A00000F0E1817A69DCF8081003EB820EC7F8C1
:1031B00004909300DFED6B5A0EF1040000227B6156
:1031C000DCF80C303B61331DD7F810903D61FD6990
:1031D000C7E902CB8C46834656F82210D8ED0C7A0C
:1031E00007EE101A53F82210B8EEC76A07EE101A4D
:1031F0005EF82210F8EEC76A07EE101A26EE256A6E
:103200005BF82210B8EEC77A66EEA56A26EE276A4A
:1032100027EE257A66EEA76A27EE277A07EE901A40
:1032200051080232F8EEE77A0AEB8100944280ED11
:10323000006A05EB810067EEA57AC0ED006A0CEB31
:10324000810009EB810180ED007A98ED0C7A67EE40
:10325000877AC1ED007ABFD8D7F804903D69D7E9E5
:1032600002CB60466208BB6949469847D8F82C30C3
:103270007A69D8ED0D6A1A449FED3E7A9FED3E6A59
:10328000131D9246DFF8E4C00022FB612B1D364E71
:10329000D9E9008E4EE0F4EEC67AF1EE10FAC0F2F3
:1032A000FC81304645F822000EEB0100D0ED007A9B
:1032B00066EEA77AF4EEC77AF1EE10FA49D9F4EE89
:1032C000C67AF1EE10FAC0F2EF813046BBF1020F80
:1032D00043F822002AD0D9F808000844D0ED007A3B
:1032E00066EEA77AF4EEC77AF1EE10FA35D9F4EE6D
:1032F000C67AF1EE10FAC0F2C98130464AF82200CF
:10330000D9F80C000144D1ED007A66EEA77AF4EE0C
:10331000C77AF1EE10FA1ED9F4EEC67AF1EE10FA81
:10332000C0F2AD813146F86940F822100232944271
:103330007FF6CBAC510808EB81008900D0ED007A14
:1033400066EEA77AF4EEC77AF1EE10FAA3D86046DB
:10335000A8E76046BAE76146E5E76046CEE700BF0A
:103360000280FFFF000000300082FF7F007E0080AF
:103370000000003404FF7FBF04FF7F3F002C00F0FB
:10338000EB807A690021D8F82430C7F8109003EB5D
:10339000820ED7F81C909300FD610EF104021FED20
:1033A0000C6A7B61331D154656F821204808D8ED7C
:1033B0000C6ABBF1020F82F40002A2F5000207EED4
:1033C000902A53F8212082F40002B8EEE77AA2F5A1
:1033D000000227EE067A07EE902A0AEB8002F8EE4A
:1033E000E77A27EE267A67EE867A82ED007A09EB95
:1033F00080024FEA800067EEA67AC2ED007A27D0FD
:103400005EF8212082F40002A2F5000207EE902A65
:1034100055F8212082F40002B8EEE77AA2F5000206
:1034200027EE067A07EE902ADCF80820F8EEE77A15
:10343000024427EE267A67EE867A82ED007A98EDCE
:103440000C7ADCF80C2067EE877A0244C2ED007A31
:1034500002318C42A8D8D7F8109060466208BB6948
:103460004946FD699847D8F82C307A69D8ED0D6A3D
:103470001A441FED407A1FED406A131D9246DFF893
:10348000C4C20022FB612B1DAB4ED9E9008E4EE079
:10349000F4EEC67AF1EE10FAC0F2C580304645F877
:1034A00022000EEB0100D0ED007A66EEA77AF4EE72
:1034B000C77AF1EE10FA49D9F4EEC67AF1EE10FAB5
:1034C000C0F2BF803046BBF1020F43F822002AD081
:1034D000D9F808000844D0ED007A66EEA77AF4EE39
:1034E000C77AF1EE10FA35D9F4EEC67AF1EE10FA99
:1034F000C0F2AE8030464AF82200D9F80C000144F0
:10350000D1ED007A66EEA77AF4EEC77AF1EE10FA02
:103510001ED9F4EEC67AF1EE10FAC0F28B80314675
:10352000F86940F82210023294427FF6CEAB51087F
:1035300008EB81008900D0ED007A66EEA77AF4EE00
:10354000C77AF1EE10FAA3D86046A8E76046BAE75A
:103550006146E5E76046CEE7224649466046BB69DC
:103560009847FFF7B2BBC7F810B0002298ED0C6A7D
:10357000331DDFED726AD7F81CB0786956F8221057
:1035800007EE901A53F82210B8EEE77A07EE901A79
:1035900051080232F8EEE77A27EE267A0AEB810E1E
:1035A00094420BEB810167EEA67A27EE067A67EE6E
:1035B000867A8EED007AC1ED007ADFD88300D7F8E5
:1035C00010B07B614DE61A46C7F810B098ED0C6A52
:1035D000331DDFED5B6AD7F81CB0786936F922102D
:1035E00007EE101A33F9221007EE901AB8EEC77AD8
:1035F00051080232F8EEE77A27EE267A0AEB810EBE
:1036000094420BEB810167EEA67A27EE067A67EE0D
:10361000867A8EED007AC1ED007ADFD88300D7F884
:1036200010B07B6134E5F0EE675AFEEEE45A15EE19
:10363000900A34E7F0EE675AFEEEE45A15EE901A5F
:103640006EE7F0EE675AFEEEE45A15EE900A3AE79E
:10365000F0EE675AFEEEE45A15EE900A4BE767EE7D
:10366000A57AFDEEE77A17EE900A00B232E567EE32
:10367000A57AFDEEE77A17EE900A00B23FE5F0EE8C
:10368000675AFEEEE05A15EE901A4CE6F0EE675AD5
:10369000FEEEE05A15EE900A30E6F0EE675AFEEEC6
:1036A000E05A15EE900AFDE5F0EE675AFEEEE05A9C
:1036B00015EE900A0AE667EEA57AFDEEE77A17EEB8
:1036C000901A09B24AE567EEA57AFDEEE77A17EEA1
:1036D000900A00B22CE5F0EE675AFEEEE45A15EEC1
:1036E000902A1FE467EEA57AFDEEE77A17EE902A9E
:1036F00012B2FFF731BBF0EE675AFEEEE45A15EE58
:10370000902AFFF7FDBBF0EE675AFEEEE05A15EE89
:10371000902AFFF79BBBF0EE675AFEEEE05A15EEDB
:10372000902AFFF780BB67EEA57AFDEEE77A17EEE9
:10373000902A12B2FFF724BB82FF7F000000003006
:10374000000000387E0080FF30B5184C154685B06B
:10375000046004F1080EEC460FC98EE80F00D4EDAA
:10376000047AF5EEC07A8CE80F00F1EE10FA1ADD5B
:10377000B7EE006A94ED057A27EE277AC6EE276A3F
:1037800084ED0D7AC4ED0C6A6DB1204640F8185FE7
:1037900001F04AFA064903690020064A2162A26242
:1037A000E36005B030BD012005B030BD34A2002477
:1037B000002000300000003000680830704700BF73
:1037C000B1F5807F03680A4628BF4FF48072B1F5D7
:1037D000807F9A6094BF00200120704700681830F5
:1037E00001F082BA30B5046883B008480D46A3687A
:1037F000A26A216A9B00009004F1180001F016FAF9
:103800000020C4E9000503B030BD00BF8D2B0008C7
:1038100010B4074B4FF07E51302400220320196171
:103820009C60D8605DF8044B5961C3E9062270477B
:1038300034A20024704700BF254A937803B970472B
:103840000B68002BFBD04FF0000C70B56546A3EB66
:103850000C04032C34D910F80C60844416F00E0FBD
:1038600006F00F042CD00F2C2AD0144494F81048E2
:1038700034B3013C0CF1010E5EFA84FED2F804343C
:10388000D2F80844013B1B1BC3F30903F3B11CF836
:10389000016FD2F80434D2F80844013B1B1BC3F378
:1038A0000903002BF5D0D2F80834F44503F10104E4
:1038B0001344C4F309041E71C2F80844DED10B6836
:1038C0000435ADB29D42AC46C1D370BD9370F6E7EE
:1038D0006CA200244FF0010CCAB20F4BA2EB0C02F9
:1038E000B2FA82F210B552090C4C82B00460204644
:1038F0006170114683F800C001920AF06DF8002350
:103900000A20A37001F07EFC019A2046044902B00F
:10391000BDE810400AF0E6B8BCC400246CA2002444
:1039200039380008012203689A7070470368D3F899
:103930000804D3F80434C01AC0F30900704700BF6C
:103940000268D2F80834D2F804145B1AC3F30903EE
:10395000002BF6D0D2F80434D1180133C3F3090395
:103960000879C2F80434704703689878704700BF3C
:103970000368D3F80424C3F80824704710B5104B2B
:10398000104C03F1100E04F5016C0FCB8CE80F0006
:103990009EE80F0004F5026C8CE80F000A484FF611
:1039A0000F010723094AC4F830082046A4F8341848
:1039B00084F836380649BDE810400FF091BA00BFD0
:1039C000D44701086CA2002480707FF0000000241E
:1039D000353800088378022B30B504468FB037D0D5
:1039E000032B33D0012B31D000230A93E378012B32
:1039F0002AD0022B28D000230B93002320460C93BF
:103A000002F028F80546204602F02CF823780990A9
:103A1000082B13D8DFE803F01F3245586B7E91A4C2
:103A20000500594BD3F8E02042F48072C3F8E0203F
:103A3000D3F8E03003F480730893089B09A9284663
:103A400003F0D0F90FB030BD0B93D6E70A93CDE762
:103A500011230A93CAE74C4B09A92846D3F8E02062
:103A600042F00102C3F8E020D3F8E03003F0010394
:103A70000093009B03F0B6F90FB030BD424B09A98B
:103A80002846D3F8E02042F00202C3F8E020D3F841
:103A9000E03003F002030193019B03F0A3F90FB0A0
:103AA00030BD394B09A92846D3F8E02042F0040282
:103AB000C3F8E020D3F8E03003F004030293029B44
:103AC00003F090F90FB030BD2F4B09A92846D3F869
:103AD000E02042F00802C3F8E020D3F8E03003F021
:103AE00008030393039B03F07DF90FB030BD264B11
:103AF00009A92846D3F8E02042F01002C3F8E020DC
:103B0000D3F8E03003F010030493049B03F06AF948
:103B10000FB030BD1C4B09A92846D3F8E02042F075
:103B20002002C3F8E020D3F8E03003F0200305932F
:103B3000059B03F057F90FB030BD134B09A9284678
:103B4000D3F8E02042F04002C3F8E020D3F8E030A0
:103B500003F040030693069B03F044F90FB030BD19
:103B6000094B09A92846D3F8E02042F08002C3F8A7
:103B7000E020D3F8E03003F080030793079B03F0C5
:103B800031F90FB030BD00BF0044025838B50546CA
:103B900001F060FF0446284601F064FF014620461C
:103BA000BDE8384003F026BB70B506460D4601F06F
:103BB00051FF0446304601F055FF2A1E01462046BB
:103BC00018BF0122BDE8704003F01ABB0023122287
:103BD00070B586B0CDE9022304930368032B01D8A6
:103BE00004230593061D841D304601F033FF05466E
:103BF000304601F037FF034601A92846019303F040
:103C0000F1F8204601F026FF034620461C4601F04D
:103C100029FF01A903462046019303F0E3F806B00B
:103C200070BD00BF634A0368934210B58CB028D0C2
:103C3000614A934258D0614A934200F09480604AAE
:103C4000934201D00CB010BD5E4C5F48D4F8E03018
:103C500043F00203C4F8E030D4F8E03003F002038C
:103C60000A930A9BFFF7B2FFD4F8F43043F08003C5
:103C7000C4F8F430D4F8F43003F080030B930B9BBA
:103C8000E0E7504C5148D4F8E03043F00203C4F868
:103C9000E030D4F8E03003F002030193019BFFF71A
:103CA00095FFD4F8E83000221F2043F4001311469A
:103CB000C4F8E830D4F8E83003F400130293029B10
:103CC000D4F8D83043F00103C4F8D830D4F8D83051
:103CD00003F001030393039B02F008F81F200CB0CC
:103CE000BDE8104002F040B8364C3948D4F8E03016
:103CF00043F08003C4F8E030D4F8E03003F08003F0
:103D00000493049BD4F8E03043F00203C4F8E0309D
:103D1000D4F8E03003F002030593059BFFF756FF4C
:103D2000D4F8E8300022212043F480031146C4F87F
:103D3000E830D4F8E83003F480030693069BD4F807
:103D4000D83043F00103C4F8D830D4F8D83003F0A9
:103D500001030793079B01F0C9FF21200CB0BDE8C8
:103D6000104002F001B81B48FFF730FF154B00224E
:103D70004820D3F8E840114644F40004C3F8E84072
:103D8000D3F8E84004F400040894089CD3F8D84021
:103D900044F00104C3F8D840D3F8D83003F001034D
:103DA0000993099B01F0A2FF48200CB0BDE8104028
:103DB00001F0DABF0054004000580040005C0040B1
:103DC000001C00580044025830AD0024A8AA00246A
:103DD00080AB002458AC00242DE9F0431A4B87B087
:103DE00000254FF010099E46EC46184BFF22E04696
:103DF00067461A700EF118060EF13004CDE9005531
:103E0000CDE90255ADF80090BCE80F00CDE90455AE
:103E1000AEE80F009CE803000095ADF800908EE836
:103E20000300B8E80F000FC69CE803000095ADF84A
:103E3000009086E803000FCF0FC49CE8030084E8DD
:103E4000030007B0BDE8F08398000024A4AA002472
:103E500010B5EFF3108472B6084B1A78120602D52B
:103E600004B962B610BD1B78D82205485BB202FBCC
:103E70000300143002F064FCF2E700BFA4AA00249F
:103E8000A8AA0024014804F053B800BF34AB0024B2
:103E9000014804F04DB800BF0CAC0024014804F008
:103EA00047B800BFE4AC00242DE9F0430F68D824E4
:103EB0003F4D85B007FB04F4032F05EB04030360BB
:103EC00040DCCB680E46012B3CD84DD04FF0D808D3
:103ED000B646DFF8FC9008FB0758BEE80F00C44662
:103EE000ACE80F00DEF800300DF1100ECCF8003019
:103EF000D8F808C099E80F000EE90F000EEB870311
:103F0000BCF1010F53F8103CC8F88C3031D0BCF133
:103F1000020F42D0BCF1000F35D0317C8C34D82355
:103F2000002201202C4403FB07534900C3E9260269
:103F3000C3F894102046C3E92822C3E92A2203F0DB
:103F4000E9FD18B1012005B0BDE8F0830146204627
:103F500003F0FAFF0028F5D10146204604F01EF8D0
:103F6000003818BF0120EEE70B7C103B672BADD962
:103F7000E8E701F0B3FA0F4B98420CBF0E4B0F4B22
:103F8000C8F89030C9E701F0A9FA0A4B98420CBF73
:103F90000B4B0C4BC8F89030BFE701F09FFA054B74
:103FA00098420CBF084B094BC8F89030B5E700BFEA
:103FB000A8AA0024000E27072D0FB0303211D02000
:103FC0005F4390608A62E030200BA0101A098010D5
:103FD000F44701082DE9F041D0F8008082B00D4689
:103FE00017461E4608F18C04204603F0A9FF20283E
:103FF000FAD1D8F80C3073B96D002046089C3346CE
:104000003A46A9B2009403F0DBFD003818BF012046
:1040100002B0BDE8F081089B32463946204603F0E5
:10402000A3FEF2E7044B10221A7483F8E82083F809
:10403000C02183F898227047A8AA002430B5002335
:1040400095B04FF48071062204460B9306921393A9
:10405000CDE90C13CDE90E33CDE9113301F042FA6D
:1040600007282BD004F1100541F2883206A9284612
:1040700004F0E6FE28B10123184684F85C3015B040
:1040800030BD0222022306A92846CDE900231022D2
:104090000123CDE9022300224FF48003CDE904235C
:1040A00005224FF0807306926A460F9341F28833DF
:1040B00005F032F80028DED115B030BD0323012011
:1040C00084F85C3015B030BD70B50023A4B04FF05B
:1040D00080724FF480750446ADF806300D93CDE93B
:1040E00010320122CDE90E53CDE91223CDE914336C
:1040F000002943D0F02300F1100508AEADF80630DA
:10410000C02341F2883231462846089304F098FED5
:1041100028B10123184684F85C3024B070BD41F208
:1041200088320DF10601284604F0F4FE034600280B
:10413000EFD105224FF480711E93284616924FF05E
:1041400080721B9321931F9202AA9FED1F7BCDE9E2
:104150001C13CDE922338DED027B9FED1D7B41F2D7
:10416000883316A98DED047B9FED1B7B8DED067BBF
:1041700004F0D2FF0028CCD124B070BD00F11005AE
:1041800008AE612341F2883231462846089304F094
:1041900057FE0028BDD141F288320DF106012846B4
:1041A00004F036FF0028B4D1BDF80630204623F0D5
:1041B000780343F04003ADF80630FFF73FFF0028D7
:1041C0009ED0A6E7AFF300800000000001000000D1
:1041D000100000000100000000000000000040008E
:1041E0002DE9F04F00234FF4807501264FF08078C1
:1041F00004462DED028BABB08DF80730139321935D
:10420000299314950E96CDF85C80CDE91533CDE950
:104210001863CDE91A33CDE92253CDE92433CDE932
:10422000273306231C9301F05DF9072808D004F119
:10423000100741F288321CA9384604F001FE40B153
:104240000123184684F85C302BB0BDEC028BBDE82E
:10425000F08F4FF0020A4FF0020B4FF0050941F2C8
:10426000883308AA1CA93846CDF89480CDF8709000
:104270009FED2D8BCDE908AB4FF0000A4FF4800B7A
:104280008DED0A8BCDE90CAB04F046FF0028D7D1A9
:1042900041F2883238460EA904F0D2FD0028CFD171
:1042A000402341F288320DF1070138468DF807307E
:1042B00004F030FE0028C3D141F288330EA902AACF
:1042C0003846CDF83890CDF85C809FED197B8DEDA8
:1042D000048BCDE906AB8DED027B04F01DFF034698
:1042E0000028ADD1CDF870904FF00109CDF8948041
:1042F0004FF00008219308AA29931CA9384622955B
:10430000CDE92333CDE9273341F288338DED0A8B94
:10431000CDE90CABCDE9088904F0FEFE002893D06E
:10432000304684F85C608FE7100000000100000058
:1043300040000000400000002DE9F043624CA3B0B3
:104340000D46046001F0CEF8072800F0A980286827
:1043500023466968AA6807C31E46AB8926F8043B52
:104360003046257B677B04F04DFDE0B9574B012DAE
:104370004FF00108E061236114BF4FF480134FF444
:104380000003C4E9058893FAA3F3B3FA83F34FF467
:104390008079013BC4F82490C4E90B0030462362C5
:1043A00004F0C4FC38B10122134684F85C2018469E
:1043B00023B0BDE8F08366230B90139041F288325E
:1043C00006A90693CDE90C90CDE90E00CDE91100C8
:1043D000304604F035FD0028E5D1992341F28832BA
:1043E00006A93046069304F02BFD0028DBD10523F7
:1043F0001C9019906A4614934FF08073219014A971
:104400001D9341F288339FED2A7BCDE91A90CDE9C7
:104410001F008DED007B9FED287B30468DED027BEC
:104420009FED277B8DED047B04F076FE0028BAD14A
:1044300029462046FFF748FE0028B4D12046FFF762
:10444000CFFE03460028AED1002FB0D118933046DE
:104450000027002606AA14A9CDF86890CDE91F33DD
:10446000EB2314934FF440631B934FF400531793C3
:104470004FF440431C93A0231693062319934FF047
:10448000805321934FF04073CDE906671D9304F0EC
:10449000BBFE034600288AD0434684F85C8086E74A
:1044A00001230322184684F85C2023B0BDE8F08382
:1044B00000000000010000001000000001000000EA
:1044C000000000000000400008AE00240050005230
:1044D0002DE9F04F8FB0414B0024026800AF9A42A3
:1044E0007C63C7E90944C7E90B4403D03C37BD46A8
:1044F000BDE8F08F3A4B40F609213A48EB46D3F835
:10450000D42007F11C0607F1220A4FF0020942F4F9
:1045100080424FF00308C3F8D420D3F8D42002F42B
:104520008042BA60BA68D3F8E02042F04002C3F893
:10453000E020D3F8E02002F04002FA60FA68D3F8F5
:10454000E02042F02002C3F8E020D3F8E02002F09F
:1045500020023A613A69D3F8E02042F01002C3F831
:10456000E020D3F8E02002F010027A617A69D3F8F3
:10457000E02042F00202C3F8E020D3F8E030F86116
:1045800003F002033984BB61174B7B60BB697B6816
:1045900053F8040F7B6001F05DFA7B6805461868EC
:1045A00001F060FA16F8013B786207F12401284611
:1045B000C7F830807B63C7E90A9402F013FC5645C4
:1045C000E5D100225C20114601F090FB5C2001F057
:1045D000CBFB3C37DD46BD46BDE8F08F00500052B6
:1045E000004402580A0A090964AE0024114B02680B
:1045F0009A4200D07047104A70B5D2F8D4300F4CB0
:1046000023F4804304F11806C2F8D43054F8040FA0
:1046100001F020FA0546206801F024FA01462846F8
:1046200002F020FDB442F1D15C20BDE8704001F001
:10463000A9BB00BF005000520044025864AE0024E1
:10464000014804F06DBE00BF18AE0024084B1A1DCF
:10465000981D03F1080110B49C1C9A6603F10A022C
:10466000C3E91834C3E91B015DF8044B5A6770476E
:1046700008AE002438B5036871B9026A00F1280554
:1046800000F5AC74012A0CBF002140218BBB1D4BEF
:104690005722C0F858310DE0426A00F1C00500F51C
:1046A000E874012A0CBF00214021EBB1164B5A22BD
:1046B000C0F8D03100232046C4E901214FF48052D4
:1046C0004FF48061636262614FF48042C4E9033158
:1046D0004FF48073C4E906234FF40033236201F0E2
:1046E000B7FC58B1FFBEFEE7084B5822C0F8D031E6
:1046F000E0E7074B5922C0F85831DBE7C5E9204411
:10470000A56338BD1000024070000240280002403E
:10471000580002402DE9F043821D05468BB0031D71
:1047200005F10A010830CDE9052305F10C02AB695A
:10473000CDE907010992002B3DD0EB69B3FA83F86C
:104740004FEA58180123022205AE0AAF4FF00609BE
:104750000393CDE9012356F8044B2B792278934239
:1047600016D02B68F3B1012B02D1F2B10A230493C6
:10477000204601F077F903462046009301F06AF9DC
:10478000694602F02FFBBE42E5D10BB0BDE8F083D5
:10479000697963789942E4D1B8F1000FF3D02B68BE
:1047A000002BE0D1CDF81090E2E76378022B14BF24
:1047B0000A230823DBE74FF00108C3E7534A0368E5
:1047C000934230B505468BB055D02032934252D03B
:1047D0004F4A934204D02032934201D00BB030BDF7
:1047E0004C4C4D48D4F8E03043F00103C4F8E030BD
:1047F000D4F8E03003F001030593059BD4F8E030D2
:1048000043F00803C4F8E030D4F8E03003F00803C4
:104810000693069BD4F8E03043F04003C4F8E03040
:10482000D4F8E03003F040030793079BD4F8F0304E
:1048300043F40003C4F8F030D4F8F03003F400037C
:104840000893089BFFF766FFD4F8D830296843F037
:1048500001032F4A3048C4F8D830891AD4F8D83028
:1048600018BF012103F001030993099B0BB0BDE8B8
:104870003040FFF7FFBE274C2848D4F8E03043F023
:104880000103C4F8E030D4F8E03003F001030093F2
:10489000009BD4F8E03043F01003C4F8E030D4F8C3
:1048A000E03003F010030193019BD4F8E03043F0B3
:1048B0004003C4F8E030D4F8E03003F04003029342
:1048C000029BD4F8F03043F48003C4F8F030D4F8FD
:1048D000F03003F480030393039BFFF71BFFD4F82E
:1048E000D830296843F00103084A0C48C4F8D8308E
:1048F000891AD4F8D83018BF012103F001030493BA
:10490000049B0BB0BDE83040FFF7B4BE0458014033
:10491000045C014000440258DCB0002480AE002456
:10492000014801F00DBF00BFD8AF0024014801F0DD
:1049300007BF00BF50B00024014801F001BF00BF15
:1049400034B20024014801F0FBBE00BFACB2002429
:104950001A4A0368934210B40BD02032934208D015
:10496000174A934216D02032934213D05DF8044B7D
:104970007047144B0022D3F85442C3F85822002C3D
:10498000F4D0D3F84802D3E9931223465DF8044BE0
:10499000520818470B4B0022D3F8B044C3F8B42494
:1049A000002CE3D0D3F8AC24D3F8A814D3F8A40493
:1049B000520823465DF8044B184700BF04580140D5
:1049C000045C014080AE0024184A0368934210B48E
:1049D0000BD02032934208D0154A934217D0203290
:1049E000934214D05DF8044B7047124BD3E99424E2
:1049F0005208C3F85822002CF4D0D3E99201234680
:104A000001EB820100EB82005DF8044B1847094B73
:104A1000D3F8AC24D3F8B0445208C3F8B424002C23
:104A2000E0D0D3F8A814D3F8A404E8E70458014070
:104A3000045C014080AE00242DE9F04F0C684FF477
:104A40001776754F87B004FB06F6012C07EB060AB4
:104A5000C0F800A000F3A0800D468E464FF000087D
:104A6000D44669A3D3E9002369A1D1E90001CDE9C6
:104A7000022306ABCAF8508203EB8403CDE904019C
:104A800053F810BC53F8083CCAE992880193BEE879
:104A90000F00ACE80F00BEE80F00ACE80F00019B70
:104AA0009EE80300CAF828B0CAF8C0308CE80300BA
:104AB0002B69042B0CD8DFE803F0737D879103008A
:104AC0004FF41773554A03FB04739A64C3F8E0204C
:104AD000AA692B6A002A43D0002B4FF4177308BF32
:104AE000022203FB047318BF0322DA6201221A6355
:104AF000EA696B6A002A40D1191E4FF4177318BF78
:104B0000012103FB0473C3E931126B69022B05D841
:104B1000434A12F80380434A52F823904FF4177324
:104B200006F128004246494603FB0474002338443A
:104B300063646363E365C4F8DC30C4F8CC30C4F864
:104B4000F430C4E90F33C4E91533C4E93533C4E99B
:104B50003B33022306F086FC002849D0FFBEFEE767
:104B6000191E4FF4177318BF012103FB0473C3E927
:104B70000B12EA696B6A002ABED0002B4FF4177340
:104B800008BF022203FB047318BF0322C3F8C4202A
:104B90000122C3F8C820B8E7012007B0BDE8F08FB4
:104BA0004FF417734FF4FA5203FB04739A64C3F87B
:104BB000E0208DE74FF417734FF47A5203FB047330
:104BC0009A64C3F8E02083E74FF417734FF4FA4276
:104BD00003FB04739A64C3F8E02079E74FF417737A
:104BE0004BF6803203FB04739A64C3F8E0206FE74E
:104BF00006F1C000022342464946384406F032FC22
:104C00000028CAD0FFBEFEE704580140045C014002
:104C100024580140245C014080AE0024007701004C
:104C2000284801082C4801080068704770B50468DE
:104C300082B015460E46C4F85032C4E99212069A64
:104C4000C4F85422A269012A26D0626A012A9AB2C3
:104C500011D0294604F1C000019206F0BFFC236A7E
:104C6000019A012B10D0294604F1280006F0B6FC69
:104C7000002002B070BD04F1C000019206F040FDBA
:104C8000236A019A012BEED1314604F1280006F087
:104C900037FD002002B070BD226A012A9AB211D0FD
:104CA000294604F12800019206F098FC636A019AF3
:104CB000012B10D0294604F1C00006F08FFC002023
:104CC00002B070BD04F12800019206F019FD636A7C
:104CD000019A012BEED1314604F1C00006F010FD1F
:104CE000002002B070BD00BF03681B69042B05D80B
:104CF000044A02EB830393ED000A70479FED020A1A
:104D0000704700BF3848010800803B470368D3F86C
:104D100058027047714A036811698B4200B587B029
:104D20004BD0916E8B4200F0B680D2F8C0108B420F
:104D300000F0B380D2F818118B4200F0B080B3F1CC
:104D4000804F1ED0664A93420DD0664A934200F0CF
:104D5000A880654A934200F0B280644A93421ED014
:104D600007B05DF804FB624BD3F8E82042F0020282
:104D7000C3F8E820D3F8E83003F002030293029B63
:104D8000EEE75B4BD3F8E82042F00102C3F8E820DD
:104D9000D3F8E83003F001030193019BE0E7544BA3
:104DA000D3F8E82042F01002C3F8E820D3F8E83046
:104DB00003F010030593059BD2E700205821B3F1BF
:104DC000804F01FB0022127B1ED045498B4235D01B
:104DD00044498B4248D044498B42BED1444BD3F81E
:104DE000E81041F00801C3F8E810D3F8E83003F008
:104DF00008030493049B002AB2D0322000220F2122
:104E000000F074FF322014E0394BD3F8E81041F081
:104E10000101C3F8E810D3F8E83003F0010301936F
:104E2000019B002A9CD01C2000220F2100F05EFF75
:104E30001C2007B05DF804EB00F096BF2C4BD3F8B4
:104E4000E81041F00201C3F8E810D3F8E83003F0AD
:104E500002030293029B002A82D01D2000220F2110
:104E600000F044FF1D20E4E7214BD3F8E81041F0A7
:104E70000401C3F8E810D3F8E83003F00403039307
:104E8000039B002A3FF46CAF1E2000220F2100F08C
:104E90002DFF1E20CDE7012090E702208EE70320A2
:104EA0008CE7134BD3F8E82042F00402C3F8E82063
:104EB000D3F8E83003F004030393039B50E70C4B53
:104EC000D3F8E82042F00802C3F8E820D3F8E8302D
:104ED00003F008030493049B42E700BF38B30024A7
:104EE0000004004000080040000C0040001000409A
:104EF000004402580F4B026819698A420BD0996E20
:104F00008A4211D0D3F8C0108A420FD0D3F81811BA
:104F10008A420DD070470021582202FB01331A6DDE
:104F2000002AF7D0586D10470121F5E70221F3E779
:104F30000321F1E738B30024014806F0EDBE00BFBD
:104F400048B30024014806F0E7BE00BFA0B3002428
:104F5000014806F0E1BE00BFF8B30024014806F0A6
:104F6000DBBE00BF50B40024F0B54FF0580C0F6802
:104F70002E4D8DB00CFB07FC032F05EB0C060660D5
:104F800047DC0B460868344649689A6807C41B7BAF
:104F9000237004AC7268264B002A4FF00002726145
:104FA00018BF1022B2610FCB84E80F000CAB03EBEB
:104FB000870353F8203CB3F1804F336124D01D4A5E
:104FC000934221D030890CF1100458230021802213
:104FD00003FB07532C44C3E907019A62204606F0FD
:104FE00005FD034600B1FEE74FF4805208A92046B4
:104FF000099301930892CDE90A33CDE9023306F013
:10500000C5FD034640B1FEE7582303FB07539868EC
:10501000D9E701200DB0F0BD01A92046019303930B
:1050200006F032FF0028F5D0FEE700BF38B30024B9
:1050300004480108000C0040006808B5037B1030EC
:105040002BB106F08DFD003818BF012008BD06F019
:105050006DFD003818BF012008BD00BF11B1036805
:10506000C3E91412704700BF0C4B00224FF0FF3110
:105070001A739960196683F86420C3F8B81083F82E
:10508000BC20C3F8101183F81421C3E90022C3E93E
:105090001622C3E92C22C3E94222704738B3002408
:1050A000704700BF08B500F0E5FDBDE8084000F01E
:1050B000E5BE00BF064808B503680BB102F0A4F8CE
:1050C000044803681BB1BDE8084003F04BB808BDB5
:1050D000B0BC0024A8B80024064808B503680BB18A
:1050E00002F092F8044803681BB1BDE8084003F0E1
:1050F00039B808BDB0BC0024A8B80024064808B5DB
:1051000003680BB102F080F8044803681BB1BDE8E6
:10511000084003F027B808BDB0BC0024A8B800249C
:10512000364BDA6A520062D59A6A9A6A9A6A9B6A20
:10513000180600D500BE314B9B6A990600D500BE0B
:105140002E4B9B6ADA0600D500BE2C4B9B6A1B07D0
:1051500000D500BE294B9B6A980700D500BE274B9F
:105160009B6AD90700D500BE244B9B6A1A0400D560
:1051700000BE224B9B6A9B0400D500BE1F4B9B6A5E
:10518000D80400D500BE1D4B9B6A190500D500BE92
:105190001A4B9B6A5A0500D500BE184B9B6A9B05AB
:1051A00000D500BE154B9B6AD80500D500BE134B39
:1051B0009B6A990100D500BE104B9B6ADA0100D5AD
:1051C00000BE0E4B9B6A1B0300D500BE0B4B9B6AB7
:1051D000580300D500BE094B9B6A990300D500BE59
:1051E000064B9B6ADA0306D400BE00BEFEE7DB6A0C
:1051F0009B07FAD5F8E700BEF6E700BF00ED00E038
:1052000000F044BD00F048BD2DE9F041CEB00446A9
:105210004C2200210AA80EF0D5FA2022002102A873
:105220000EF0D0FABC2200211EA80EF0CBFA02200C
:1052300003F094FC2368012B4FF0000354D0534A31
:1052400002250193C820D16A514B21F00101D1629E
:10525000D26A02F0010201929A6942F440429A61D4
:105260009B6903F440430193019B494A93699B0462
:10527000FCD548490224002201268B6A04274FF0FE
:10528000080823F0030323438B62052316900AA822
:1052900018934FF480331096179419941597CDF8FE
:1052A0006880CDE91B222122CDE91344CDE90A23F0
:1052B00004F03EF900B1FEE73F220323294602A88D
:1052C000CDE9022300220823CDE904234022402314
:1052D000CDE9062340234FF48062CDE9082304F092
:1052E00055FC0346B8B1FEE7294A04250093F02097
:1052F0009169264B41F440419161926902F4404228
:105300000092DA6A42F00102DA62DB6A03F001031A
:105310000093009BA9E720224FF4805125934FF47E
:1053200040152B9280222D931EA830932691359103
:105330004FF48071249234920C223394439140F2C2
:10534000271120921022CDF884802A971F96CDE94C
:105350002E34CDE93B334FF48033CDE922463193EF
:10536000002446930623CDE93E4527934FF48063FE
:10537000094C2C931E94CDE9281204F063FE00B171
:10538000FEE703F011FC4EB0BDE8F08100040058C8
:1053900000480258004402580F130F032DE9F04152
:1053A0000D46044684B0D1E9000184E8030000F012
:1053B00031FCAE79002E37D06F460AF001F9FEF7C6
:1053C0000BFD08F08DFF09F085FE2B79002B54D1E1
:1053D0006B799BB1BFF34F8FBFF36F8F3C4B0022B4
:1053E000C3F85022BFF34F8FBFF36F8F5A6942F457
:1053F00000325A61BFF34F8FBFF36F8F4FF0FF3210
:105400000023002400253946324802928DF80C30E2
:10541000CDE90045FFF7A8FD2E48FFF70DFE08F087
:105420008FFB04B0BDE8F08120466F46FFF7ECFE2D
:10543000012400F0D1FC4FF040534FF480783846FF
:105440000193254BADF80040CDE9023800F0E2FCB5
:1054500019224FF0404338468DF80F40ADF80D80CB
:105460008DF801408DF80A608DF80820019300F056
:10547000D1FC042000F0BEFC9FE7154C0023C4F8CB
:105480008430BFF34F8FD4F8803043F6E07EC3F30F
:10549000C906C3F34E334FEA431C0CEA0E003346F1
:1054A00040EA8372013BC4F860225A1CF8D1ACF187
:1054B000200C1CF1200FF0D1BFF34F8F636943F430
:1054C00080336361BFF34F8FBFF36F8F80E700BFFF
:1054D00000ED00E098B400240E00010304F086BC47
:1054E00004F0A0BC1C4B9B6803F17842B2F5003F6E
:1054F00025D3B3F5803F20D303F16042B2F5003FDE
:105500001FD303F15C42B2F5002F1CD303F17042AC
:10551000B2F5902F19D303F14842B2F5803F16D36C
:1055200003F18042B2F1806F13D303F1E043B3F58E
:10553000000F2CBF08200720704701207047002073
:1055400070470220704703207047042070470520F1
:1055500070470620704700BF00ED00E003480023BD
:10556000034A044903600DF0BBBC00BF98B400249B
:1055700000000024A150000810B4204C0022204B51
:1055800083B0D4F888101F4841F47001C4F8881023
:1055900019681D4C41F0010119601A611968084031
:1055A0001A4918609A61DA611A629A62DA621A63B9
:1055B0005A639A63DA631A645A64186820F4802084
:1055C00018601A66D3F8DC2042F06042C3F8DC2091
:1055D000D3F8DC300193019B23681940B1F1005FDF
:1055E00003D20B4B0122C3F80821044B4FF0006299
:1055F0009A6003B05DF8044B704700BF00ED00E017
:10560000004402587FEDF6EA0010005C0000FFFF46
:10561000008000514B4A036830B593428BB04FF085
:105620000004CDE90444CDE90644089404D0464A78
:10563000934249D00BB030BD444D4FF4C052444862
:10564000D5F8E03043F00103C5F8E030D5F8E0309C
:1056500003F0010300930223009904A9CDE9042378
:105660000A23089301F0BEFB4FF40072002304A943
:1056700037480694CDE9042301F0B4FBD5F8D830BF
:105680002246214643F000636220C5F8D830D5F8A1
:10569000D83003F000630193019B00F027FB6220E8
:1056A00000F062FB22462146632000F01FFB6320CE
:1056B00000F05AFB22462146652000F017FB6520CA
:1056C00000F052FB0BB030BD204D4FF4404204A916
:1056D000D5F8E03043F00203C5F8E030D5F8E0300B
:1056E00003F002030293022302981A48CDE904232F
:1056F0000C23089301F076FBD5F8D83022462146DA
:105700004A2043F00073C5F8D830D5F8D83003F0FC
:1057100000730393039B00F0E9FA4A2000F024FB96
:10572000224621464B2000F0E1FA4B2000F01CFB02
:10573000224621464D2000F0D9FA4D2000F014FBFE
:105740000BB030BD00000840000004400044025887
:10575000000002580004025800F57171D0F80404EA
:1057600007F0DCBCC1EBC10300EB8303D0F80404F9
:10577000D3F8082207F000BDC1EBC10300EB83039F
:10578000D0F804049A6C07F035BD00BFD0F80404CB
:1057900007F0D4BDC16810B5044619B1022900D084
:1057A000FEE70121D4F8040407F0B2FDD4F80404A4
:1057B000BDE8104007F084BD10B50446D0F80404DD
:1057C00007F0AAFD2268D2F8003E43F00103C2F8B8
:1057D000003E236A23B1034A136943F006031361B1
:1057E00010BD00BF00ED00E0D0F8040407F09EBD3E
:1057F000D0F8040407F0B2BDD0F8040407F0ACBD43
:10580000D0F8040407F0ACBDD0F8040407F0AABD3A
:1058100070B5067804461EB1012E30D0002070BD50
:10582000304D0923304AC5F80404C0F89852284680
:105830002E612E63C5E9002302230222EB600023C0
:10584000C5E9062300220023C5E90823012201231C
:10585000C5E90A2302F0CEFB00B1FEE7802128460D
:1058600003F05CF931464022284603F02DF98022EE
:105870000121284603F028F92678012ECED11B4DB0
:1058800009221B4B00216A6002222B600223C5F80B
:1058900004442846EB600023C4F898522961C5E906
:1058A000062300220023C5E90823C5E90C230122B1
:1058B0000023C5E90A2302F09DFB044600B1FEE780
:1058C0004FF40071284603F029F92146802228462A
:1058D00003F0FAF84FF4BA723146284603F0F4F8B0
:1058E0009CE700BFA0B4002400000840A8B8002432
:1058F00000000440D0F8980208B502F011FC03281B
:1059000002D8024B185C08BD022008BD5C480108A3
:105910009446D0F898021A4608B5634602F086FF0E
:10592000032802D8024B185C08BD022008BD00BF46
:105930005C480108D0F8980208B502F0B5FF0328CA
:1059400002D8024B185C08BD022008BD5C48010863
:10595000D0F8980208B503F037F8032802D8024BB4
:10596000185C08BD022008BD5C480108D0F8980208
:1059700008B503F06DF8032802D8024B185C08BD87
:10598000022008BD5C4801080A06D0F8983206D407
:10599000C1EBC10103EB810191F8FE01704701F0F9
:1059A0007F01C1EBC10103EB810191F83E0070471B
:1059B000D0F8980208B502F023FF032802D8024B62
:1059C000185C08BD022008BD5C480108D0F89802A8
:1059D00008B502F0D1FF032802D8024B185C08BDBD
:1059E000022008BD5C480108D0F8980208B502F012
:1059F00091FF032802D8024B185C08BD022008BDA5
:105A00005C480108D0F8980202F0ACBFD0F8C002A0
:105A100007F09ABFD0F8C00207F0AEBFD0F8C002BE
:105A200007F0B6BF704700BFD0F8C00207F09CBFB8
:105A3000D0F8C00207F09CBFD0F8D00308B501F041
:105A4000A3FF032802D8024B185C08BD022008BD42
:105A500060480108024B027853F82200704700BFEB
:105A600084480108024B427833F81200704700BFA7
:105A7000644801088CB00A2814D8DFE800F0152328
:105A8000313F4D5B6977859306004D4BD3F8E0209D
:105A900042F48062C3F8E020D3F8E03003F480637E
:105AA0000B930B9B0CB07047454BD3F8E02042F0B2
:105AB0000102C3F8E020D3F8E03003F001030193C2
:105AC000019BEFE73E4BD3F8E02042F00202C3F81F
:105AD000E020D3F8E03003F002030293029BE1E7F9
